:100000000C9454170C9485170C9485170C94851731
:100010000C9485170C9485170C9485170C948517F0
:100020000C9485170C9485170C9485170C948517E0
:100030000C9485170C9485170C9485170C948517D0
:100040000C9485170C94ACC30C9485170C948517ED
:100050000C9485170C9485170C94FF9D0C94ACE5BB
:100060000C9485170C942EBC0C9424BC0C9485170E
:100070000C9485170C9485170C9485170C94851790
:100080000C9485170C9485170C9485170C94851780
:100090000C9415BA0C94E0B90C9485170C94851740
:1000A0000C9485170C9485170C9485170C94851760
:1000B0000C9485170C9485170C9485170C94851750
:1000C0000C9485170C9485170C9485170C94851740
:1000D0000C9485170C9485170C9485170C94851730
:1000E0000C9485173E484348484852485C48D548D8
:1000F00066486E48764880488A489448A348AD4888
:10010000D548B748C148CB4848BA5ABA6CBA7DBA44
:1001100085BAB4BA89BAB4BA8DBA91BAB4BA95BA32
:1001200099BA9DBAA5BAB4BAAFBA61BC73BC85BC62
:1001300096BC9EBCCDBCA2BCCDBCA6BCAABCCDBC52
:10014000AEBCB2BCB6BCBEBCCDBCC8BCB6E4B9E4A7
:10015000A8E4ACE4B0E4F0E4BDE4C1E4C7E4CBE47B
:10016000CFE4D5E4D9E4DDE4F0E4E3E4E7E4EBE470
:10017000084AD73B3BCE016E84BCBFFDC12F3D6C0E
:1001800074319ABD56833DDA3D00C77F11BED9E474
:10019000BB4C3E916BAAAABE000000803F05A84C54
:1001A000CDB2D44EB93836A9020C50B99186880820
:1001B0003CA6AAAA2ABE000000803F000C94B2BC54
:1001C0000C94CE360C94C1E40C9491BA0C94C7E410
:1001D0000C948DBA0C94B7480C9489BA0C94463898
:1001E0000C949DBA0C945ABA0C94AE3B0C94843B7C
:1001F0000C9473BC0C94F0E40C94A4710C94CA3A63
:100200000C947F920C94CFE40C94A0720C94FA3866
:100210000C946F3A0C94C5700C94FB6E0C944E3792
:100220000C94D9CA0C9494480C94236F0C94B6BCCB
:100230000C94C5710C94A3480C9461BC0C9448BAFE
:100240000C949B360C9481730C949EBC0C946CEFB4
:100250000C94CBE40C9404370C940D6F0C945C73E9
:100260000C94EDCC0C94EBE40C94CA6E0C9437987F
:100270000C9452480C9482970C9451360C946198CB
:100280000C940BCB0C94F7720C9439740C94A2BCA4
:100290000C94DD910C9476480C94356F0C94439239
:1002A0000C94C1480C94C8910C9499EF0C94B4BA76
:1002B0000C9453710C94D5480C945C360C94A6BCE9
:1002C0000C948A480C94ACE40C9414710C94BDE426
:1002D0000C9402380C94DD970C9445710C94713B8E
:1002E0000C94AEBC0C94BD3B0C94B0E40C949E6E8C
:1002F0000C9451710C9410370C9495360C946E48F4
:100300000C9448CB0C94CA6F0C94D5700C945C4838
:100310000C94CDBC0C943E480C94A8E40C94C69666
:100320000C9430730C9485BC0C9457960C94B43890
:100330000C94DDE40C9447980C9481CB0C94BEBCD7
:100340000C94D5E40C94B3910C94F8360C94D9E445
:100350000C9409960C944F720C94A96E0C947E3AEE
:100360000C94E8CB0C94B5730C9443480C9499BA54
:100370000C94B6E40C94F0360C942B370C9460700B
:100380000C9425730C94A1CC0C94E06E0C946CBA74
:100390000C94946E0C94B16E0C9480480C940C3AAE
:1003A0000C941D720C94553A0C94906E0C94A1CB45
:1003B0000C94896F0C9466480C9451380C94B9E4F1
:1003C0000C9476910C94B6CB0C9412730C946E71C1
:1003D0000C94C8BC0C945C3B0C94AD480C94BE3699
:1003E0000C94CB480C947DBA0C9448480C94A43AD5
:1003F0000C9496BC0C942C980C9495BA0C94157093
:100400000C948A370C94A5BA0C9475740C94E1364C
:100410000C9485BA0C940DCC0C94E7E40C94A1399F
:100420000C94E3E40C940A370C94C6360C94FF3A0F
:100430000C94AABC0C94AFBA0C9413974E414E493D
:100440004E495459494E46CDCCCC3D0AD7233C1792
:10045000B7D13877CC2B329595E6241FB14F0A00DF
:100460000020410000C84200401C4620BCBE4CCACF
:100470001B0E5AAEC59D7400407A10F35A00A0724C
:100480004E18090010A5D4E80000E87648170000CF
:10049000E40B54020000CA9A3B000000E1F505009D
:1004A0000080969800000040420F000000A08601E6
:1004B000000000102700000000E8030000000064B6
:1004C00000000000000A0000000000010000000021
:1004D000002C76D888DC674F0823DFC1DFAE59E1F6
:1004E000B1B796E5E3E453C63AE651997696E8E665
:1004F000C28426EB898C9B62ED407C6FFCEFBC9C38
:100500009F40F2BAA56FA5F490055A2AF75C936B49
:100510006CF9676DC11BFCE0E40D47FEF520E6B504
:1005200000D0ED902E0300943577050080841E08DE
:100530000000204E0A000000C80C333333330F98FC
:100540006E12831141EF8D2114893BE65516CFFEC3
:10055000E6DB18D1844B381BF77C1D901DA4BBE44F
:1005600024203284725E228100C9F124ECA1E53D91
:1005700027434F4D4D554E49434154494F4E00443A
:10058000525952554E004552524F5253004543481E
:100590004F005265706F732E2E2E005A2050726FCE
:1005A00062652050617374204265640A00536F6E67
:1005B0006465205A20686F7273206C6974005072F1
:1005C0006F62696E67204661696C65640A00456305
:1005D00068656320736F6E646500205A3A200020BE
:1005E000593A200042656420583A20004D657368EE
:1005F00020706F696E74206F7574206F6620726151
:100600006E67650A004D302053746F70004D3120C5
:1006100053746F7000417474656E746520757469ED
:100620006C69732E004D6F746575727320626C6F08
:100630007175657300456E642066696C65206C6930
:1006400073740A00426567696E2066696C65206C88
:100650006973740A004E6F206D656469610A005207
:100660006573756D696E6720534400286E6F206650
:10067000696C65290043757272656E742066696CD9
:10068000653A20005344207072696E74696E672069
:100690006279746520004E6F742053442070726933
:1006A0006E74696E670A005072696E742074696DA9
:1006B000653A20000A53746174733A2046696C618C
:1006C0006D656E7420757365643A20002C204C6F44
:1006D0006E67657374206A6F623A2000546F7461AC
:1006E0006C2074696D653A20002C204661696C6548
:1006F000643A20002C2046696E69736865643A206C
:10070000005072696E74733A200053746174733AC6
:100710002000526566726F6964697373656D656EFA
:10072000740044454255473A004D3131332053005F
:100730004C4B342050726F204F46462E002F2F20F6
:1007400000416363656C65726174696F6E3A205035
:100750000046523A0020466C6F773A200020643AF7
:100760000020693A0020703A00496E76616C696435
:100770002065787472756465720A00646973004359
:10078000290A0061626C656420286D696E207465B9
:100790006D702000436F6C642065787472756465B9
:1007A0007320617265200046696C616D656E74200E
:1007B00072756E6F757420004D34323120696E632E
:1007C0006F727265637420706172616D65746572B9
:1007D0002075736167650A00446563616C616765D4
:1007E00073206170706C6971756573004572723A3F
:1007F00020546F6F206661722100546F6F20666114
:10080000722066726F6D207265666572656E6365D3
:1008100020706F696E740A00454550524F4D204F4D
:100820004B0A002058593A2000466163746575727E
:10083000206563617274006D696E5F736B65775FCD
:10084000666163746F723A20202D31206D61785F8C
:10085000736B65775F666163746F723A2020310A4B
:1008600000506F7765722D6C6F7373207265636FC4
:100870007665727920004D383400436F6E74696E6E
:100880007565005072696E7420446F6E6500446F28
:100890006E65207072696E74696E672066696C653A
:1008A0000A004D3737004D3331008D054E0C86055B
:1008B0007F0571050000000000000000000000003E
:1008C00000005C4300005C4300007A4345636865B8
:1008D00063206563726974757265206465206C2796
:1008E000454550524F4D00436F6E6669672E206537
:1008F0006E726567697374726565005365747469B7
:100900006E67732053746F726564202800526566A9
:10091000726F6964697373656D656E742E2E2E0037
:100920004732390A4D34323053310054656D7065A9
:100930007261747572652074726F70206261737376
:1009400065004732385A0047323858595A005265C4
:10095000746F75722061206C276F726967696E65AC
:10096000206E6563657373616972652E2E2E004576
:100970007865637574696F6E206465206C612063AF
:100980006F6D6D616E64652E2E2E004D3530320018
:100990004175746F63616C6962726167652064752B
:1009A000205049442E2E2E004D33303343256445CC
:1009B00025645325645531004D31303030430049B2
:1009C0006E76616C6964207265636F7665727920FA
:1009D00064617461004D31303030007C3C3E5E2BF0
:1009E0003D3F2F5B5D3B2C2A225C0053544F5050FF
:1009F00065005072696E7465722073746F707065F3
:100A0000642064756520746F206572726F72732E36
:100A10002046697820746865206572726F72206163
:100A20006E6420757365204D39393920746F2072DA
:100A30006573746172742E202854656D70657261DF
:100A4000747572652069732072657365742E205306
:100A500065742069742061667465722072657374B0
:100A6000617274696E67290A004E6F20436865637E
:100A70006B73756D2077697468206C696E65206E84
:100A8000756D6265722C204C617374204C696E65C3
:100A90003A2000636865636B73756D206D69736DD3
:100AA000617463682C204C617374204C696E653AE4
:100AB00020004C696E65204E756D62657220697309
:100AC000206E6F74204C617374204C696E65204EEB
:100AD000756D6265722B312C204C617374204C69EA
:100AE0006E653A20004D313130005344207265610B
:100AF00064206572726F720A002121204B494C4CB0
:100B00002063617573656420627920746F6F206D56
:100B100075636820696E6163746976652074696DB8
:100B200065202D2063757272656E7420636F6D6D24
:100B3000616E643A2000627573793A207061757352
:100B4000656420666F7220696E7075740A00627544
:100B500073793A2070617573656420666F722075D1
:100B60007365720A00627573793A2070726F6365FB
:100B70007373696E670A00457272206C65637475E1
:100B80007265206D65646961004D65646961206905
:100B90006E73657265004D65646961207265746984
:100BA0007265004D31303030530046696C616D65BF
:100BB0006E7420737572206275736520452564001C
:100BC0004D363030002066696C616D656E745F7201
:100BD000756E6F7574200066696C616D656E745F0B
:100BE00072756E6F757420540046696C616D656E28
:100BF0007452756E6F75742054002F2F6163746981
:100C00006F6E3A00626567696E00656E64007072AF
:100C10006F6D70745F0073686F7700446973616211
:100C20006C6552756E6F75740050757267654D6FA7
:100C300072650050617573656400554E4B4E4F5799
:100C40004E2053544154450047434F44455F494E5D
:100C5000464F004C43445F50415553455F52455306
:100C6000554D450046494C414D454E545F52554EF9
:100C70004F55545F434F4E54494E55450046494CDD
:100C8000414D454E545F52554E4F5554004D3837E7
:100C90003620526573706F6E64696E672050524FD4
:100CA0004D50545F0053656E64204D3130382074D0
:100CB0006F20726573756D650A00526568656174B1
:100CC0002066696E69736865642E005265686561A7
:100CD0007420446F6E6500526568656174696E6763
:100CE0002E2E2E005265686561740048656174653A
:100CF000722054696D656F75740053656E64204D84
:100D000031303820746F2068656174206E6F7A7A94
:100D10006C650A004E6F7A7A6C65205061726B6563
:100D20006400486F74656E6420746F6F20636F6C2D
:100D3000640A0070617573656400627574746F6E27
:100D4000004C6F61642046696C616D656E74004C87
:100D50006F61642046696C616D656E742054004952
:100D60006E736572742066696C616D656E74206166
:100D70006E642073656E64204D3130380A007265F0
:100D800073756D656400526573756D696E670049B2
:100D90006D70722E20656E20706175736500207411
:100DA0006F6F206C6F6E6720657874727573696FF2
:100DB0006E2070726576656E7465640A0020636FDC
:100DC0006C6420657874727573696F6E20707265DB
:100DD00076656E7465640A0045202553004C4B34DB
:100DE0002050726F2070726574652E00496D7072AC
:100DF000657373696F6E004F46460A00466164650D
:100E0000204865696768742000426564204C6576F7
:100E1000656C696E6720004661696C656420746F5B
:100E200020656E61626C6520426564204C65766564
:100E30006C696E670A00496E76616C6964206D6545
:100E400073682E0A00473120583130205931302044
:100E50005A31302046333030300A4D35303000477B
:100E60007269642070726F62696E6720646F6E656C
:100E70002E0A0069646C650A00206F662000706F9E
:100E8000696E7420004D616E75616C2047323920A7
:100E9000004D616E75616C204732392061626F725E
:100EA0007465640A00202844525952554E2900475F
:100EB0003239204175746F20426564204C65766537
:100EC0006C696E67003F20284C2C522C462C42291E
:100ED000206F7574206F6620626F756E64732E0AC2
:100EE000003F2856296572626F7365206C657665D0
:100EF0006C20696D706C61757369626C6520283057
:100F00002D34292E0A00426164205A2076616C75C6
:100F1000650A004E6F2062696C696E6561722067B8
:100F20007269640A0047305A31300047305A300045
:100F300047305825645925640047305A34004732F9
:100F400038005265746F75722061206C276F72696A
:100F500067696E652E2E2E004F63637570652E2EA9
:100F60002E004D6973652061206A6F7572204457A9
:100F7000494E204755492F4F53206E656365737363
:100F800061697265002564782564782564004F7274
:100F90006967696E65202573257325732050726516
:100FA0006D696572004563686563206F7269676982
:100FB0006E65005761726E696E673A20486F6D69A1
:100FC0006E672042756D702044697669736F722078
:100FD0003C20310A000000484200004842000080E6
:100FE000400202040000A0400000A04000000040B9
:100FF000FFFFFF656E7175657565696E672022007C
:101000006F6B00526573656E643A20002569792024
:10101000256964202569682025696D20256973008C
:10102000526566726F69642E206475206C69742E37
:101030002E2E004C697420656E20636861756666AB
:10104000652E2E2E0023646566696E652044454634
:1010500041554C545F004B6420004B6920004B709D
:101060002000504944204175746F74756E65206688
:10107000696E6973686564212050757420746865B1
:10108000206C617374204B702C204B6920616E645E
:10109000204B6420636F6E7374616E74732066728C
:1010A0006F6D2062656C6F7720696E746F20436F7F
:1010B0006E66696775726174696F6E2E680A00509A
:1010C0004944204175746F74756E65206661696C62
:1010D0006564212074696D656F75740A000A204388
:1010E0006C617373696320504944200A00204B648B
:1010F0003A2000204B693A2000204B703A20000A29
:10110000204E6F206F76657273686F6F740A0020CF
:1011100054753A2000204B753A2000206D61783AD2
:101120002000206D696E3A200020643A2000206281
:101130006961733A2000504944204175746F747599
:101140006E652073746172740A00504944204175C1
:10115000746F74756E65206661696C6564212054D6
:10116000656D706572617475726520746F6F20684B
:101170006967680A00504944204175746F74756E40
:101180006500504944204175746F74756E65206622
:1011900061696C65642120426164206578747275B0
:1011A000646572206E756D6265720A005741524E19
:1011B000494E4721204C6F77205A204A65726B2098
:1011C0006D6179206C65616420746F20756E776144
:1011D0006E746564207061757365732E0A00204D0E
:1011E000393220580020204D61783A200020204DCF
:1011F000696E3A2000536F667420656E6473746F75
:1012000070733A20004D32342053256C64205425ED
:101210006C64004739322E39204525730047312050
:10122000462564004739322E39205A25730047314C
:10123000205A302046323030004731205825732064
:10124000592573204633303030004D34323020532E
:101250002569205A2573004D3130362050256920EC
:10126000532569004D31303920532569004D3139FE
:101270003020532569004D3230302044257300471B
:10128000323852305859004739322E3920453020F3
:101290005A300A47315A2573004D343230205330CA
:1012A000205A300020496E76616C6964206578743C
:1012B00072756465722000256C642E25696D006E60
:1012C0006F74696669636174696F6E200063616E33
:1012D00063656C00496D70722E20616E6E756C6571
:1012E00065004469736D6973730055492041626FED
:1012F00072746564006F70656E00545249474745CB
:101300005245440066696C616D656E74007A5F6D6C
:10131000696E00795F6D696E00785F6D696E00526D
:1013200065706F7274696E6720656E6473746F7038
:10133000207374617475730A006F70656E20666146
:10134000696C65642C2046696C653A2000577269A7
:1013500074696E6720746F2066696C653A20006658
:101360007265736800646F696E67004E6F77200066
:101370002020506C616E6E657242756666657242C1
:10138000797465733A20002046726565204D656D5D
:101390006F72793A2000436F6D70696C65643A2012
:1013A0004A756C20203120323032310A00204C61E5
:1013B000737420557064617465643A203230323041
:1013C0002D31302D3135207C20417574686F723A93
:1013D00020284461477237302C204C4B3470726F98
:1013E00020426C746F75636820524742290A0032AC
:1013F0002E302E372E320A004D61726C696E00203D
:10140000536F6674776172652052657365740A0064
:10141000205761746368646F672052657365740A4E
:10142000002042726F776E206F757420526573656D
:10143000740A002045787465726E616C2052657381
:1014400065740A00506F77657255700A0061757493
:101450006F25632E67004732385859004D313030C0
:1014600031006572726F722077726974696E6720DD
:10147000746F2066696C650A00446F6E6520736145
:1014800076696E672066696C652E0A004D323900F8
:10149000656E6473746F7073206869743A200070AD
:1014A000012C0190012701B0012201C0011D01F0B2
:1014B0000118011002130130020E016002090190AF
:1014C000020401C002FF000003FA004003F500809F
:1014D00003F000D003EB002004E6007004E100E01C
:1014E00004DC004005D700C005D2004006CD00D086
:1014F00006C8008007C3003008BE00F008B900C06D
:1015000009B400B00AAF00B00BAA00D00CA50000CF
:101510000EA000500F9B00C01096005012910000CA
:10152000148C00C0158700B0178200B0197D00D060
:101530001B7800001E730040206E0090226900F0AE
:1015400024640040275F0090295A00E02B550010CA
:101550002E500020304B0010324600E03341009006
:10156000353C001037370070383200A0392D00B0FC
:101570003A2800A03B2300603C1E00103D1900905B
:101580003D1400103E0F00703E0A00C03E050000F2
:101590003F0000403FFBFF803FF6FFC03FF1FF20D0
:1015A0002D20496E76616C6964206578747275646B
:1015B0006572206E756D62657220210A0045727237
:1015C00020544845524D4951554500546865726D47
:1015D000616C2052756E617761790045727220549A
:1015E000454D502E204D4158004D415854454D50C9
:1015F0002074726967676572656400457272205471
:10160000454D502E204D494E004D494E54454D50AC
:101610002074726967676572656400202F0020423C
:10162000403A0020403A0020573A0020453A002036
:101630005A3A0020593A00010210202008081020D0
:10164000401020408002010201080402010102044E
:10165000081020408080402010080402018004020D
:101660000180402010080402010804020101020464
:101670000810204080010204081020408000002251
:1016800000250028002B002E00310034000201004C
:1016900000050108010B01050505050705080808F7
:1016A00008020202020A0A080804040404010101F3
:1016B00001010101010303030303030303040707FB
:1016C000070C0C0C0C0C0C0C0C0202020206060699
:1016D00006060606060B0B0B0B0B0B0B0B43617080
:1016E0003A004348414D4245525F54454D504552A2
:1016F0004154555245004241425953544550504976
:101700004E470041524353004D4F54494F4E5F4D99
:101710004F44455300544845524D414C5F50524F41
:1017200054454354494F4E004C4F4E475F46494C39
:10173000454E414D45004155544F5245504F52542E
:101740005F53445F535441545553005344434152F3
:10175000440050524F4D50545F535550504F5254C7
:1017600000454D455247454E43595F504152534500
:101770005200434153455F4C494748545F425249E8
:101780004748544E45535300544F47474C455F4CD0
:10179000494748545300534F4654574152455F50B0
:1017A0004F574552004255494C445F5045524345BE
:1017B0004E54004C4556454C494E475F44415441B8
:1017C000005A5F50524F4245004155544F4C4556C8
:1017D000454C005052494E545F4A4F420050524FC0
:1017E0004752455353004155544F5245504F525460
:1017F0005F54454D5000564F4C554D45545249434A
:101800000042494E4152595F46494C455F5452414E
:101810004E534645520053455249414C5F584F4E36
:101820005F584F4646004649524D574152455F4E1C
:10183000414D453A4D61726C696E20322E302E3723
:101840002E3220284A756C2020312032303231204F
:1018500032323A30313A32302920534F55524345D3
:101860005F434F44455F55524C3A68747470733A05
:101870002F2F6769746875622E636F6D2F4D6172CB
:101880006C696E4669726D776172652F4D61726C1D
:10189000696E2050524F544F434F4C5F5645525340
:1018A000494F4E3A312E30204D414348494E455F15
:1018B000545950453A4C4B342050726F204558547F
:1018C00052554445525F434F554E543A3120555579
:1018D00049443A63656465326132662D3431613260
:1018E0002D343734382D396231322D633535633636
:1018F000326633363766660A0047322F4733206236
:10190000616420706172616D65746572730A005064
:10191000726F6265204F6666736574205A003F5A85
:10192000206F7574206F662072616E6765202800D5
:101930003F59206F7574206F662072616E67652055
:10194000282D0020746F20003F58206F7574206F81
:10195000662072616E676520282D0050726F626587
:10196000204F66667365742058002053697A653A83
:10197000200043616E6E6F74206F70656E2073750A
:10198000626469722000534420496E697420466184
:10199000696C0053442063617264206F6B0A006FAE
:1019A00070656E526F6F74206661696C65640A00C1
:1019B000766F6C756D652E696E6974206661696CF1
:1019C00065640A004E6F20534420636172640A000C
:1019D0004D32332025730046696C652073656C6554
:1019E000637465640A0046696C65206F70656E6596
:1019F000643A2000454E4420535542524F555449B5
:101A00004E450A002220706F7300222070617265BB
:101A10006E743A2200535542524F5554494E452058
:101A200043414C4C207461726765743A22005375CF
:101A30006263616C6C204F766572666C6F770045EF
:101A400078636565646564206D6178205355425202
:101A50004F5554494E452064657074683A310A0008
:101A600044656C6574696F6E206661696C65642C91
:101A70002046696C653A200046696C652064656C97
:101A8000657465643A004572726F7220777269748A
:101A9000696E6720746F20454550524F4D210A00F2
:101AA0002062797465733B2063726320004E6F205F
:101AB000454550524F4D2E0A00454550524F4D203E
:101AC0006461746173697A65206572726F722E0A3F
:101AD00000454550524F4D2056657273696F6E2018
:101AE0004572726F7200454550524F4D20496E64E9
:101AF0006578204572726F7200454550524F4D20F7
:101B0000435243204572726F72002073746F726586
:101B1000642073657474696E67732072657472698A
:101B200065766564202800202863616C63756C61AC
:101B300074656429210A0020213D2000454550524A
:101B40004F4D20435243206D69736D61746368206B
:101B50002D202873746F726564292000496E6465B6
:101B6000783A200044494749504F5453204C6F6104
:101B70006465640A0044494749504F5453204C6FF0
:101B80006164696E670A00204D61726C696E3D5632
:101B90003832290A00454550524F4D207665727300
:101BA000696F6E206D69736D6174636820284545A7
:101BB00050524F4D3D0024F4D43050C38E20C2A269
:101BC0004017828B7011127A910D816CD90AA8612D
:101BD000E108C7586607615143061E4B5D05C145C4
:101BE000A7041A411104093D9803713931034036A5
:101BF000DB0265339102D4305402802E1D02632C27
:101C0000EE01752AC501B028A001102781018F259A
:101C100064012B244B01E0223401AC211F018D20F3
:101C20000D01801FFC00841EED00971DDF00B81C15
:101C3000D200E61BC600201BBC00641AB200B21919
:101C4000A8000A19A0006A189900D117910040173E
:101C50008B00B516840031167E00B31579003A1555
:101C60007300C7146F0058146A00EE1366008813DF
:101C7000630025135E00C7125B006C12570015123B
:101C80005400C111510070114F0021114B00D610AA
:101C900049008D1047004610440002104200C00F5A
:101CA0004000800F3E00420F3C00060F3B00CB0E71
:101CB0003800930E37005C0E3500270E3400F30D0C
:101CC0003200C10D3100900D3000600D2E00320D3C
:101CD0002D00050D2C00D90C2B00AE0C2900850C15
:101CE00029005C0C2700350C27000E0C2600E80BA1
:101CF0002400C40B2400A00B23007D0B23005A0BEF
:101D00002100390B2100180B2000F80A1F00D90A06
:101D10001E00BB0A1E009D0A1D00800A1D00630AEA
:101D20001C00470A1B002C0A1B00110A1A00F709A5
:101D30001A00DD091900C4091900AB09190092093C
:101D400017007B091800630917004C0916003609B3
:101D50001600200916000A091500F5081500E0080C
:101D60001400CC081400B8081400A408140090084B
:101D700013007D0812006B08130058081200460873
:101D80001200340811002308110012081100010884
:101D90001100F0071000E0071000D0071000C00786
:101DA0001000B0070F00A107100091070E00830775
:101DB0000F0074070F0065070E0057070E00490754
:101DC0000E003B070D002E070E0020070D00130725
:101DD0000D0006070D00F9060C00ED060D00E006EB
:101DE0000C00D4060C00C8060C00BC060C00B006A3
:101DF0000C00A4060B0099060C008D060B00820651
:101E00000B0077060B006C060B0061060A005706F4
:101E10000B004C060A0042060A0038060A002E068D
:101E20000A0024060A001A060A001006090007061E
:101E30000A00FD050900F4050900EB050900E205AB
:101E40000900D9050900D0050900C7050900BE052C
:101E50000900B5050800AD050800A50509009C05A9
:101E60000800940508008C050800840508007C051E
:101E70000800740508006C050700650508005D058D
:101E80000700560508004E050700470507004005F6
:101E9000080038050700310507002A05070023055B
:101EA00007001C050600160507000F0507000805BA
:101EB000060002050700FB040600F5040700EE0417
:101EC0000600E8040600E2040700DB040600D5046F
:101ED0000600CF040600C9040600C3040600BD04C2
:101EE0000600B7040600B1040500AC040600A60411
:101EF0000600A00405009B0406009504050090045C
:101F000006008A04050085040500800406007A04A2
:101F1000050075040500700405006B0405006604E7
:101F20000500610405005C04050057040500520427
:101F300005004D04050048040500430405003E0467
:101F400004003A04050035040500300404002C04A4
:101F5000050027040400230405001E0404001A04DD
:101F6000040016040500110404000D040400090413
:101F700005000404040000040400FC030400F8034A
:101F80000400F4030400F0030400EC030400E8037D
:101F90000400E4030400E0030400DC030400D803AD
:101FA0000400D4030400D0030400CC030400C803DD
:101FB0000300C503030024F404D9201BC40C5C0EE9
:101FC0009804C4095F0265077101F405F900FB0478
:101FD000B30048048700C103690058035500030398
:101FE0004500BE023A008402310053022A00290251
:101FF000250004022000E4011C00C8011900AF0103
:102000001700980114008401130071011000610190
:10201000100051010E0043010D0036010B002B0191
:102020000B0020010B00150109000C010900030140
:102030000800FB000800F3000800EB000700E400C4
:102040000600DE000600D8000600D2000600CC0024
:102050000500C7000500C2000500BD000400B9006E
:102060000400B5000400B1000400AD000400A900A4
:102070000400A5000300A20003009F0004009B00D1
:1020800003009800030095000200930003009000F5
:1020900003008D0002008B00030088000200860010
:1020A000020084000300810002007F0002007D0026
:1020B00002007B0002007900020077000100760038
:1020C00002007400020072000100710002006F0043
:1020D00002006D0001006C0002006A00010069004E
:1020E0000200670001006600010065000100640055
:1020F00002006200010061000100600001005F0059
:1021000002005D0001005C0001005B0001005A005C
:10211000010059000100580001005700010056005D
:10212000010055000100540001005300000053005D
:1021300001005200010051000100500001004F0059
:1021400001004E0000004E0001004D0001004C0057
:1021500001004B0000004B0001004A000100490053
:10216000010048000000480001004700010046004F
:102170000000460001004500000045000100440049
:102180000100430000004300010042000000420043
:1021900001004100000041000100400001003F003B
:1021A00000003F0001003E0000003E0001003D0035
:1021B00000003D0001003C0000003C0000003C002D
:1021C00001003B0000003B0001003A0000003A0023
:1021D000010039000000390001003800000038001B
:1021E0000000380001003700000037000100360011
:1021F0000000360000003600010035000000350008
:1022000000003500010034000000340000003400FC
:1022100001003300000033000000330001003200F1
:1022200000003200000032000100310000003100E7
:1022300000003100010030000000300000003000DC
:1022400001002F0000002F0000002F0000002F00D1
:1022500001002E0000002E0000002E0001002D00C5
:1022600000002D0000002D0000002D0001002C00BA
:1022700000002C0000002C0000002C0001002B00AE
:1022800000002B0000002B0000002B0001002A00A2
:1022900000002A0000002A0000002A000100290096
:1022A000000029000000290000002900000029008A
:1022B000010028000000280000002800000028007D
:1022C0000000280001002700000027000000270070
:1022D0000000270000002700010026000000260063
:1022E0000000260000002600000026000100250056
:1022F000000025000000250000002500000025004A
:10230000000025000100240000002400000024003B
:10231000000024000000240001002300000023002E
:102320000000230000002300000023000000230021
:102330000000230001002200000022000000220013
:102340000000220000002200000022000100210005
:1023500000002100000021000000210000002100F9
:1023600000002100000021000100200000002000EA
:1023700000002000000020000000200000002000DD
:10238000000020000000200001001F0000001F00CE
:1023900000001F0000001F0000001F0000001F00C1
:1023A00000001F0001001E0000001E0000001E00B3
:1023B00000001E000000043700001E290000511B11
:1023C00000005810000010090000CC040000780242
:1023D000000041010000322E302E372E32004C4BCF
:1023E000342050726F00496D706F737369626C6551
:1023F0002074616E7420717565206C27696D707230
:10240000696D616E74652065737420656E206174FA
:1024100074656E746500496D706F737369626C6585
:102420002070656E64616E7420756E6520696D70D4
:1024300072657373696F6E00506173206465206DFF
:10244000656469610043616E6E6F7420656E7465CA
:1024500072207375626469723A2000417563756E0B
:1024600020666963686965722073656C6563746969
:102470006F6E6E65004D323520500A4D3234005279
:102480006573756D650055492050617573650072FF
:102490006573756D6500002002000000EDCC000042
:1024A000012002000000EDCC00000220020000002C
:1024B000EDCC0000032002000000EDCC0000042061
:1024C000020000000DCC0000052002000000A1CC9D
:1024D0000000062000000000E8CB000007200200FA
:1024E0000000A1CB000008200200000081CB00000A
:1024F000092002000000B6CB00000A200200000004
:102500000BCB00000B2002000000D9CA00000E20F7
:102510000200000048CB00000F2002000000553AE6
:102520000000102002000000CA3A00001120020042
:102530000000A43A0000122002000000A43A0000AB
:102540001420020000007E3A000015200200000066
:102550006F3A0000162002000000FF3A000017202A
:10256000020000000C3A0000182002000000F036C3
:102570000000192002000000FA3800001A200000B4
:102580000000BD3B00001B2000000000AE3B00002F
:102590001C2002000000E13600001D2002000000A7
:1025A000CE3600001E2002000000A13900001F20CE
:1025B0000200000002380000202002000000B438B1
:1025C0000000212002000000B43800002220020098
:1025D0000000B43800002320020000005138000041
:1025E000242002000000C636000025200000000064
:1025F00046380000262000000000843B0000272011
:1026000002000000713B0000282002000000BE36DE
:1026100000002920020000009B3600002A20020052
:1026200000004E3700002B20000000008A37000019
:102630002C20020000005C3B00002D200200000066
:102640002B3700002E2002000000103700002F2042
:10265000000000009536000020300200000000005D
:10266000C57125302000000000004F724530200069
:10267000000000004F7265302000000000004F7223
:1026800085302000000000004F72A53020000000BF
:1026900000004F72C530020000000000A072C6307A
:1026A0002000000000001D72E63002010000000062
:1026B000A471E7300F01000000006E71F6300201D6
:1026C000000000005371F730020000000000147198
:1026D000F83002012B020000DD97F9300201000002
:1026E0000000236FFC300201740C00008297FD3063
:1026F0000201780C0000DD97FE30020000000000AF
:102700000D6FFF300201890D000082970031020138
:102710008D0D0000DD9701310200000000000D6FFB
:102720000531020100000000FB6E06310201AD140C
:1027300000001397073102001F020000E06E08310D
:10274000020100000000D570093102000000000005
:1027500060702231020084090000C6962331020015
:1027600086090000C6962431020000000000CA6EEF
:102770002531020020020000C696263102016F0DAD
:102780000000579627310201730D0000579628313B
:102790000201770D000057962931020088090000D8
:1027A000E06E2A31020000000000C5702B310200EB
:1027B00000000000B16E2C31020022020000C6961B
:1027C0002D31040100000000896F2F310401000049
:1027D000000015703131040100000000CA6F333170
:1027E0001800DE230000B3914B31180000000000F8
:1027F000356F63311000D6230000B39173310200AE
:1028000000000000817374310200000000005C735E
:1028100075311800000000007F928D311800000013
:1028200000004392A531180000000000DD91BD3189
:1028300002000000000061980040020100005C36C8
:102840004798014020028B09F836C89121400200C8
:102850001202769109962240020000000A3737984A
:1028600023400200000004372C98005002000000B2
:1028700000005371015000000000513600000000BC
:102880000000000000000000BD31000033314B317A
:1028900063317331743175318D31A53100002340BE
:1028A0000000224000002B312C3121402D312F31EE
:1028B000313100002A31000001400000263127316B
:1028C0002831293105310000FF3000312431253114
:1028D0000000223123310000FF300031FC30FD3098
:1028E00008310931000006310731000005310000D0
:1028F00000400000FF3000310131FC30FD30FE307F
:102900000000FF300031FC30FD30E630E730005091
:1029100000000031FD300040F830F9300631000091
:10292000FF300031FC30FD30E630E730F630F73074
:10293000000020302530453065308530A530C53069
:10294000C6300000FF300031FC30FD3000000230A6
:10295000730345710451710A75740BB5730C3974A6
:102960000D25730EA96E0F9E6E10127311F7721360
:10297000946E16906E000000014429023229032053
:102980002904122905022906442907F42808F028F9
:1029900009EC280BE6280C44290DD8280ED2280F64
:1029A000C82810BC2811B82812B42813A62814A2CD
:1029B00028159E28168C28F9882800000045636891
:1029C0006563206475206E6976656C6C656D656EF7
:1029D000742E2E2E004E6976656C6C656D656E7476
:1029E000207265616C69736520617665632073751B
:1029F00063636573005265696E697469616C6973BC
:102A00006174696F6E206465206C27454550524F94
:102A10004D0044757265652063616C696272617412
:102A2000696F6E2050494420686F7273206C696D25
:102A30006974652E2E2E0054656D70657261747513
:102A400072652074726F70206861757465004275DC
:102A5000736520696E636F6E6E7565004175746F86
:102A600063616C69627261676520647520504944D6
:102A7000207265757373692E00526564656D6172AD
:102A80007265722053565000706F7765726F66667C
:102A9000004B494C4C4544005072696E746572207D
:102AA00068616C7465642E206B696C6C28292063E6
:102AB000616C6C6564210A006563686F3A00457259
:102AC000726F723A0042696C696E656172204C6582
:102AD00076656C696E6720477269643A0A00205215
:102AE000004563686563206C656374757265206476
:102AF00065206C27454550524F4D00486172646314
:102B00006F6465642044656661756C7420536574F8
:102B100074696E6773204C6F616465640A003B20C2
:102B20000020204D363033200020204D343132201B
:102B3000530046696C616D656E742072756E6F75B9
:102B4000742073656E736F723A0020550046696C8D
:102B5000616D656E74206C6F61642F756E6C6F6152
:102B600064206C656E677468733A0020204D3835B8
:102B700032205300536B657720466163746F723A5D
:102B8000200020204D3835312058005A2D50726FCA
:102B90006265204F66667365740020204D343133C2
:102BA000205300506F7765722D4C6F737320526500
:102BB000636F766572793A0020204D3330342050AF
:102BC0000020204D3330312050005049442073659F
:102BD0007474696E67733A00204A002020473239C6
:102BE000205720490020204D3432302053004175B9
:102BF000746F20426564204C6576656C696E673A37
:102C00000020204D323036205800486F6D65206F0F
:102C100066667365743A0020204D323035204200DC
:102C2000416476616E6365643A20423C6D696E5F13
:102C30007365676D656E745F74696D655F75733E0E
:102C400020533C6D696E5F66656564726174653EB4
:102C500020543C6D696E5F74726176656C5F666569
:102C60006564726174653E20583C6D61785F785F81
:102C70006A65726B3E20593C6D61785F795F6A6569
:102C8000726B3E205A3C6D61785F7A5F6A65726B49
:102C90003E20453C6D61785F655F6A65726B3E0002
:102CA00020204D323034205000416363656C6572E2
:102CB0006174696F6E2028756E6974732F73322981
:102CC0003A20503C7072696E745F616363656C3E5C
:102CD00020523C726574726163745F616363656CFA
:102CE0003E20543C74726176656C5F616363656C11
:102CF0003E0020204D3230312058004D6178696D02
:102D0000756D20416363656C65726174696F6E20D7
:102D100028756E6974732F7332293A00204500209C
:102D2000590020204D3230332058004D6178696DB4
:102D3000756D206665656472617465732028756EB3
:102D40006974732F73293A0053746570732070652A
:102D50007220756E69743A0020440020204D323094
:102D6000302053002044697361626C65640A004638
:102D7000696C616D656E742073657474696E6773D8
:102D80003A0020286D6D2900202047323120202074
:102D9000203B20556E69747320696E206D6D0000B4
:102DA000009643000096430000A0400000C8410088
:102DB00000A0420000A0420000C843F628C542E837
:102DC000030000E803000064000000B80B000020CE
:102DD000436F756E7420583A004C69740045310099
:102DE000626564002C2073797374656D2073746F51
:102DF0007070656421204865617465725F49443A6A
:102E0000200045727220646520636861756666659E
:102E10000048656174696E67206661696C6564006D
:102E20004D3131322053687574646F776E00000045
:102E30002100240027002A002D003000330001016A
:102E40000000040107010A0100000A0B02090C0D31
:102E50000E0807030401000000000000000000004D
:102E60000000000000000000000000000000000062
:102E7000000000001211100000000000000000001F
:102E80000000000000000000000000000000220A16
:102E900000556E6B6E6F776E20636F6D6D616E6443
:102EA0003A20220099EF6CEF11241FBECFEFD1E240
:102EB000DEBFCDBF00E00CBF12E0A0E0B2E0E8E969
:102EC000F2E002E00BBF02C007900D92AA3FB107EB
:102ED000D9F724E1AAEFB2E001C01D92A33CB207EA
:102EE000E1F717E1C3E5D7E100E006C0219701094A
:102EF000802FFE010E94A2FDC235D10780E00807A5
:102F0000A9F70E9409EA0D943A010C9400002F924F
:102F10003F924F925F926F927F928F929F92AF9269
:102F2000BF92CF92DF92EF92FF920F931F93CF93B6
:102F3000DF93CDB7DEB7ED970FB6F894DEBF0FBEC7
:102F4000CDBF8DAF2091070328AF81E080930703A9
:102F5000809120128D3409F4ACC4843511F40C94A2
:102F6000112A873411F00C94362A20911E123091C8
:102F70001F122B31310509F48DC09CF4243031052A
:102F800034F422303105CCF537FF2BC08EC4243009
:102F9000310509F440C02531310511F40C94382A6B
:102FA00084C42A32310509F459C35CF42D3131054A
:102FB00009F4A0C00CF48EC02E31310509F49EC076
:102FC00074C42B35310509F493C22C35310509F44D
:102FD00094C22A35310509F068C410926E0C0C9425
:102FE000382A80914C0C813011F00C94382A0E94C0
:102FF00097890E94A8780C94382A80914C0C8130D3
:1030000011F00C94382A2230310509F080E00E943A
:103010000DAB0C94382A80E50E94B467882329F010
:103020000E947E636B017C0103C0C12CD12C760110
:1030300083E50E94B467882361F00E94716520E0F7
:1030400030E04AE754E40E942FF70E941EFF6B0114
:103050007C010E94A5348091A503811105C060E028
:1030600082E995E00E94A2940E94A0E5C60ED71EB8
:10307000E81EF91E0E94A0E5DC01CB018C199D0918
:10308000AE09BF09B7FD02C00C94382A80E00E9447
:103090006245F0CF87E00E94B17781110C94382A05
:1030A0008CE0E2E7F2E0DE01119601900D928A9544
:1030B000E1F780E50E94B467882321F00E943D6516
:1030C000862F01C080E0BE016F5F7F4F0E94C793D3
:1030D0000C94382A8091B0098770873011F00C94D5
:1030E000412A60E08FE40E94E06781110C94382A45
:1030F0000C94412A0E94F5670C94382A2091A5145B
:103100003091A6144091A7145091A81460916F0DAE
:103110007091700D8091710D9091720D0E94ABFDB8
:10312000AB01BC0188E50E94437E4B015C016C8FC2
:103130007D8F8E8F9F8F2091A9143091AA1440917A
:10314000AB145091AC146091730D7091740D80911B
:10315000750D9091760D0E94ABFDAB01BC0189E528
:103160000E94437E6CAB7DAB8EAB9FAB68A379A313
:103170008AA39BA3BE01605E7F4FCE014C960E9446
:103180008E63882311F40C94382A80E00E9431D594
:103190000E94807B61E085E40E94E067382ECE01CA
:1031A00001962CE0DC011D922A95E9F789829A822A
:1031B000AB82BC822CA93DA94EA95FA92D833E8379
:1031C0004F835887BE016B5F7F4F0E948E638823B9
:1031D00009F465C12091A5143091A6144091A7145B
:1031E0005091A814C501B4010E94AAFD2B013C0115
:1031F00069837A838B839C832091A9143091AA14CC
:103200004091AB145091AC146CA97DA98EA99FA9D3
:103210000E94AAFD9B01AC016D837E838F839887FA
:10322000E090770DF090780D0091790D10917A0D66
:10323000E986FA860B871C8780913D0290913E02B9
:10324000A0913F02B091400289AF9AAFABAFBCAF43
:103250008091270290912802A0912902B0912A0220
:1032600080933D0290933E02A0933F02B0934002B0
:103270001CA21DA21EA21FA2DE0194966D01C30115
:10328000B2010E94BA7B8091850A811103C081E05E
:103290000E94CC318091840A82FF11C02091AD142C
:1032A0003091AE144091AF145091B01460E070E0D2
:1032B00080EA90EC0E94AAFD2B013C0106C0412C43
:1032C000512C40E2642E41EC742EC090AD14D0908D
:1032D000AE14E090AF14F090B01420E030E0A901FB
:1032E000C701B6010E94C9F687FF0BC0A70196016E
:1032F00060E070E080E791E40E94AAFD6B017C0130
:1033000006C0C12CD12C30E7E32E31E4F32EA70107
:1033100096016091770D7091780D8091790D909163
:103320007A0D0F940B001816E4F5C8AAD9AAEAAAD8
:10333000FBAAC12CD12C20E8E22E20E4F22ECCA650
:10334000DDA6EEA6FFA6BE01645D7F4FCE01C0964E
:103350000E949D7C10914B0C10924B0C82E00E94BD
:10336000EC7C0E941A7E12FF1CC0C8A6D9A6EAA651
:10337000FBA620E030E0A9016091770D7091780DF7
:103380008091790D90917A0D0E94ABFD6CA37DA385
:103390008EA39FA3BE01685D7F4FCE0184960E94DD
:1033A0009D7C48A659A66AA67BA680E090E0A0E096
:1033B000B0E48CA39DA3AEA3BFA3BE016C5D7F4F01
:1033C000CE0188960E949D7C10914B0C10924B0C64
:1033D00082E00E94EC7C0E941A7EC090770DD09013
:1033E000780DE090790DF0907A0D4090AD145090EA
:1033F000AE146090AF147090B01412FF0FC0A30110
:10340000920160E070E0CB010E94AAFD9B01AC013B
:10341000C701B6010F940B00181634F4C12CD12C3F
:1034200090ECE92E9FE7F92EA3019201C701B601A6
:103430000E94ABFD7B018C019B01AC010F949D00B0
:1034400081110BC0B1E03B1208C00E94DAA88823AA
:1034500021F0E12CF12C00EC1FE729AD3AAD4BAD8A
:103460005CAD20933D0230933E0240933F02509367
:1034700040029701A801B701C8010F949D0088235D
:1034800091F00E94DAA860E08EEC95E00E94A29490
:103490000E9493D88EEB95E00E949ED704C0E12C49
:1034A000F12C00EC1FE79701A801B701C8010F94A8
:1034B0009D00811117C0B501A40184EE95E00E9422
:1034C00062D84CA95DA96EA97FA98FED95E00E94F5
:1034D00062D8A701B8018AED95E00E9462D88AE01F
:1034E0000E94F8BA0E94677B0E941C7E0C94382AC6
:1034F0008FE080936E0C0C94382A80911D128823E3
:1035000049F1893009F0A6C00EE7A02E02E0B02EE6
:103510008FE6E82E8DE0F82ED12C00E010E0D501EA
:103520008D915D010E94B467882369F00E947165E6
:10353000F7016083718382839383133011F401E078
:1035400002C0DD24D3941F5FF4E0EF0EF11C1430B1
:1035500031F775C0AEE72A2EA2E03A2EBCE8EB2E7A
:10356000BCE0FB2E2FE63DE03DAB2CAB13E6C12EBD
:103570001DE0D12E00E010E0D1018D911D010E94CF
:10358000B467882309F44BC00E9471652B013C018C
:10359000133049F0F60120813181428153810E942C
:1035A000AAFD2B013C01ACA9BDA92D913D914D91E6
:1035B0005C91C301B2010E94AAFD4B015C012DEB9D
:1035C00037E346E855EB0F940B0087FD0AC02DEB5F
:1035D00037E346E855E3C501B4010E94C9F6181661
:1035E000F4F4133051F440927B0D50927C0D6092B4
:1035F0007D0D70927E0D01E012C0A5019401F701CE
:1036000060817181828193810E94ABFDD7016D93AE
:103610007D938D939C931397812F0E947E771F5FDC
:10362000B4E0EB0EF11CECA9FDA93496FDABECABBC
:10363000F4E0CF0ED11C143009F09ECF05C0DD2080
:1036400019F00E941A7E06C0002321F08BE79DE04E
:103650000E94B6340E941C7E0C94382A80914C0C37
:10366000813011F00C94382A89E40E94B467E82E66
:10367000882321F00E943D65062F01C000E08AE406
:103680000E94B467F82E882321F00E943D65162F12
:1036900001C010E0EE2011F0053020F4FF2041F0D1
:1036A000153030F08CEE95E00E949ED70C94382AAD
:1036B00080E1EFE6FDE0A1EBB9E001900D928A9583
:1036C000E1F7EE2019F1602F000F770B880B990BB3
:1036D0000E94D0F62091D7123091D8124091D91281
:1036E0005091DA120E942FF72091CF123091D01210
:1036F0004091D1125091D2120E94ABFD6093B1095A
:103700007093B2098093B3099093B409FF2019F123
:10371000612F110F770B880B990B0E94D0F6209127
:10372000DB123091DC124091DD125091DE120E94CA
:103730002FF72091D3123091D4124091D51250918D
:10374000D6120E94ABFD6093B5097093B6098093C1
:10375000B7099093B80960E080E50E94E06788238C
:10376000C1F1EE20D1F02091A5143091A614409122
:10377000A7145091A8146091B1097091B209809179
:10378000B3099091B4090E94AAFD6093B1097093A6
:10379000B2098093B3099093B409FF20D1F020912E
:1037A000A9143091AA144091AB145091AC146091BB
:1037B000B5097091B6098091B7099091B8090E9436
:1037C000AAFD6093B5097093B6098093B7099093E9
:1037D000B80940E050E0BA0186E40E94437E6B01E4
:1037E0007C0120E030E0A9010F940B0018165CF476
:1037F00020E030E040E752E4C701B6010E94A5FE98
:103800006B017C0103C0C12CD12C760180903D025C
:1038100090903E02A0903F02B090400220E030E045
:10382000A901C701B6010E94C9F6882341F0C092E0
:103830003D02D0923E02E0923F02F092400200919F
:103840002B0210912C0284E690E090932C0280933E
:103850002B02C0901402D0901502E0901602F09056
:10386000170280E090E0A0E8BFE3809314029093F9
:103870001502A0931602B09317020E94A8788092B6
:103880003D0290923E02A0923F02B09240021093FD
:103890002C0200932B02C0921402D0921502E092E7
:1038A0001602F09217020C94382A0E94F6E50C9446
:1038B000382A80911E1290911F128937910509F4C0
:1038C000B5C70CF025C18E34910509F44AC40CF03B
:1038D00091C08A31910509F469C374F58431910569
:1038E00009F4A2C27CF48131910509F489C22CF457
:1038F000029708F43FC20C940E2A429709F447C677
:103900000C940E2A8731910509F4D3C24CF4853109
:10391000910509F4BAC2469709F4BBC20C940E2A69
:103920008831910509F4DCC2499711F00C940E2AF4
:103930000E94F58E0C94382A8032910509F4C3C395
:10394000ECF58D31910509F4A7C384F48B31910511
:1039500009F43AC34C9711F00C940E2A8091630A33
:103960009091640A0E9440B60C94382A8E319105D9
:1039700009F499C34F9711F00C940E2A0E94789382
:103980006C8F7D8F8E8F9F8FBE016F5F7F4FCE01BB
:103990004C960E94668660E0CE0101960E940895D2
:1039A0000E9497D8BE016F5F7F4F87EA96E00E9422
:1039B00080D88AE00E94F8BA0C94382A8B3491059A
:1039C00009F4C1C354F48132910509F4A5C38934C3
:1039D000910509F4A5C30C940E2A8C34910509F4C1
:1039E000B6C38D34910511F00C940E2A0E949532C5
:1039F0000C94382A8C36910511F40C94382A0CF06A
:103A000047C08535910509F4F8C54CF58235910517
:103A100009F4AFC5D4F48135910511F00C940E2A48
:103A20000E94549F0E9495320E9415360E94A5B8AC
:103A300068EE73E080E090E00E947AD760E080E377
:103A400097E00E94A2940C94382A8335910509F4DA
:103A500097C58435910509F49AC50C940E2A8936C8
:103A6000910509F482C454F48C35910509F4E8C534
:103A70008836910509F407C40C940E2A8A369105FC
:103A800009F487C48B36910509F4A7C40C940E2A57
:103A90008237910509F472C6D4F48F36910509F482
:103AA000BAC454F48D36910509F40DC48E369105CF
:103AB00009F49EC40C940E2A8037910511F40C94DD
:103AC000382A8137910509F4EBC40C940E2A863705
:103AD000910509F46EC654F48337910509F455C66F
:103AE0008537910509F454C60C940E2A8737910541
:103AF00009F499C68837910511F00C940E2A81E0DB
:103B00008093820A8093810A0E9453930C94382AEE
:103B10008A3921E0920711F40C94382A0CF086C0FF
:103B20008E3C910509F4B3C7CCF58E3B910509F4A1
:103B3000F7C4C4F48C38910509F4D4C44CF48D371F
:103B4000910511F00C940E2A0E94F58E0C94382ADF
:103B50008639910509F471C68B39910509F4E3C4DE
:103B60000C940E2A8B3C910509F43EC754F4883C12
:103B7000910509F4D1C6893C910509F412C70C944A
:103B80000E2A8C3C910509F451C78D3C910511F02A
:103B90000C940E2A0E94EC900C94382A8E3241E04C
:103BA000940711F40C94DC26E4F48D3D910509F49E
:103BB000B7C754F4833D910509F488C78C3D91053E
:103BC00009F487C70C940E2A8232A1E09A0711F4F7
:103BD0000C94E6258D32914011F40C94E9250C9457
:103BE0000E2A8039E1E09E0711F40C9423276CF42F
:103BF0008F3221E0920711F40C94202780339140FA
:103C000011F40C9469260C940E2A813941E0940732
:103C100011F40C9426278239914011F00C940E2A4D
:103C20000E94DAA80E941C7E0C94382A8C30A2E0F4
:103C30009A0711F40C943C280CF045C08C3AE1E052
:103C40009E0711F40C94BD27DCF48D3921E0920716
:103C500011F40C9498293CF48C39914011F40C9493
:103C60002E270C940E2A843A51E0950711F40C94F7
:103C70004227853A914011F40C9445270C940E2A62
:103C8000863FB1E09B0711F40C941F287CF4843F1D
:103C9000F1E09F0711F40C941C28853F914011F02E
:103CA0000C940E2A0E9497DA0C94382A873F31E050
:103CB000930711F40C942228883F914011F40C943E
:103CC0002B280C940E2A843553E0950711F40C949C
:103CD0007F291CF58D3BB2E09B0711F40C94C5289D
:103CE0006CF48835F2E09F0711F40C9449288B3569
:103CF000924011F40C944C280C940E2A8E3B32E026
:103D0000930711F40C94C8288335934011F00C9458
:103D10000E2A0E9496A70C94382A873E53E09507F6
:103D200011F40C948A29CCF48C36B3E09B0711F47F
:103D30000C94382A803A934011F00C940E2A20916A
:103D4000630A3091640A90912C10926090932C1029
:103D5000C9010E9440B60C94382A883EF3E09F07C0
:103D600011F40C94AF29893E934011F40C94B229BC
:103D70000C940E2A80E50E94B467882329F00E94E3
:103D80007E636B017C0103C0C12CD12C760183E5DD
:103D90000E94B467882361F00E94716520E030E0E2
:103DA0004AE754E40E942FF70E941EFF6B017C013A
:103DB0000E94A5348091630A9091640A009719F0DB
:103DC0000E94ECD004C085E196E00E944995809164
:103DD0001E1290911F12892B19F06DE076E002C03F
:103DE00065E076E020E030E04AE758E082E00E94BB
:103DF000D35040E0C701B6010E9459B80C94382A4C
:103E00008091211284FF02C00C94722B80912312A6
:103E100087FF02C00C94722B80912412837011F0E2
:103E20000C94722B0C948E2B80912C1083FF25C048
:103E300084E496E00E949ED780912C1083FF17C0E7
:103E40008EE590E10E9453428BE1EEE5F0E1DE0168
:103E5000119601900D928A95E1F760E070E0CE0135
:103E600001960E9465B7CE0101960E94554C85E3EC
:103E700096E00E949ED70C94382A0E9497D885E538
:103E800096E00E949ED70C94382A0E94B5B20C94FA
:103E9000382A80912C1082FF02C00C94382A0E948C
:103EA00044B280912C10877F806280932C100C94F8
:103EB000382AE091630AF091640A8081882329F00E
:103EC000803209F410823196F8CF60E08091630A65
:103ED0009091640A0E948AB61092680A0C94382A5B
:103EE00083E50E94B467882321F00E943D650E940B
:103EF000158884E50E94B4678823A9F00E943D6577
:103F00006B017C010E94AC93C0920D03D0920E0312
:103F1000E0920F03F0921003CD28CE28CF2819F09D
:103F200081E080930F04809125128823D9F01982B3
:103F30001A821B821C821C8E1D8E1E8E1F8E1CA23E
:103F40001DA21EA21FA200E010E020E0AE014F5F04
:103F50005F4FBE01645E7F4FCE0184960E94C051C8
:103F60000C94382A0E9497B8882381F00E9455B299
:103F70000E94363283EE9CE00E94FAB11092D7097B
:103F80001092D8091092D9091092DA0961E08FE8ED
:103F900094E20E94CA4F42EE52E16FE576E085E07E
:103FA0000E94EB620E94C8620C94382A80912C1007
:103FB00083FD02C00C94382A83E50E94B467811106
:103FC0000C94962B0C94382A83E40E94A8658823CD
:103FD000C1F185E796E00E949ED78091A5118823C4
:103FE00039F1BE016F5F7F4F82EA91E10E941F426B
:103FF0008E010F5F1F4FD8018D918D01882319F01D
:104000000E94F8BAF8CFCE0101960E9412B68091B4
:10401000F403882389F080E20E94F8BA04EF13E0E9
:10402000F80181918F01882339F00E94F8BAF8CF06
:104030008BE696E00E949ED78AE00E94F8BA0C9424
:10404000382A80912C1082FF21C084E896E00E94DB
:104050009ED7609128107091291080912A1090911C
:104060002B104AE00E94FFBA8FE20E94F8BA6091DA
:1040700024107091251080912610909127104AE00D
:104080000E94FFBA0E94FDBB0C94382A86E996E094
:104090000E949ED70C94382A80912C108E7F80939A
:1040A0002C100C94382A80912C1083FD02C00C94A3
:1040B000382A0E9462A78091630A9091640A0E9444
:1040C00065B50C94382A80912C1082FD0E94A5348D
:1040D00080912C1083FD02C00C94382A60E080E5AA
:1040E0000E94E067182F682F8091630A9091640AFC
:1040F0000E948AB683E50E94B467882321F00E945B
:104100003D650E9415880E9455B211110C94382A01
:104110000E9436320C94382A0E9445870C94382A23
:1041200080E50E94A865882311F40C94382A0E9427
:104130004D6590E08536910510F084E690E080931F
:10414000680A0C94382A0E9436320C94382A8091DE
:104150000F04813011F00C94382A0E9462930C9461
:10416000382A60E070E083E50E94C1678E349105D3
:1041700031F40E9412330E94C8620C94382A8AE0FB
:1041800097E00E949ED76091710A7091720A81E057
:1041900097E00E9455D86091730A7091740A84EF79
:1041A00096E00E9455D86091710A7091720A8091D0
:1041B000730A9091740A681B790B80910F048150E7
:1041C00021E030E0823010F020E030E0621B730B21
:1041D00089EE96E00E9455D88AE00E94F8BA8AE0FB
:1041E00097E00E949ED78091750A9091760AA091DF
:1041F000770AB091780A8C8F9D8FAE8FBF8FBE01EA
:104200006F5F7F4FCE014C960E946686BE016F5F46
:104210007F4F8CED96E00E9480D88091790A909132
:104220007A0AA0917B0AB0917C0A8C8F9D8FAE8F09
:10423000BF8FBE016F5F7F4FCE014C960E94668696
:10424000BE016F5F7F4F8CEC96E00E9480D820E02B
:1042500030E04AE754E460917D0A70917E0A8091D3
:104260007F0A9091800A0E94A5FEAB01BC0184EBFD
:1042700096E00E9462D88DE60E94F8BA8AE00E9419
:10428000F8BA0C94382A80916D0C83FF02C00C940C
:10429000382A0E94A78A87FF02C00C94382A83E537
:1042A0000E94B467882359F00E9471650E9417FF2D
:1042B000CB010E94449A61E080E00E94379E0E94F8
:1042C0009AE70C94382A80916D0C83FF02C00C94FD
:1042D000382A0E94A78AF82E87FF02C00C94382A39
:1042E00083E50E94B467182F811107C082E50E9400
:1042F000B467811102C000E02CC00E9471650E9469
:1043000017FFCB010E94449A61E081E00E94379E32
:1043100060918D0D70918E0D072E000C880B990BFE
:104320000E94D0F64B015C014090890D50908A0D9F
:1043300060908B0D70908C0DA30192010F940B0077
:10434000181614F40C94B52B112311F40C949B2B18
:1043500001E00E949AE7002311F40C94382A612F9F
:104360008F2D0E94C69A0C94382A0E94A78A182F73
:1043700087FD0AC080E090E10E949ED7812F0E94B5
:10438000549A8AE00E94F8BAF8ADF09307030C94AF
:10439000F22C60E080E50E94D46781110C94382AE9
:1043A00081E40E94A865882321F060916F0C062F9C
:1043B00002C00FEF10E083E50E94B467882349F044
:1043C0000E943D658B016F3F710519F010F00FEFF2
:1043D00010E000936F0C0C94382A60E080E50E9496
:1043E000D46781110C94382A10926F0C0C94382ADF
:1043F0008EE40E94B467882311F40C94382A0E943A
:104400003D6560935F0A7093600A8093610A9093A0
:10441000620A0C94382A83E50E94A865882331F04B
:1044200060E083E50E94D46780936D0C0E9497D86A
:1044300082E297E00E949ED780916D0C882369F1FB
:10444000FAEAEF2EF8E0FF2E00E010E020E0809185
:104450006D0C90E0A0E0B0E0002E04C0B695A795EA
:10446000979587950A94D2F780FF0EC0DD24D394E8
:10447000D20E222319F08CE20E94F8BAF70185913E
:1044800094910E949ED72D2D0F5F1F4F32E0E30EB7
:10449000F11C05301105D9F6CFCD8DE89AE2CACDD1
:1044A00083E50E94B467882371F00E944D65282F30
:1044B00030E02D3331051CF480930002D9C78CE322
:1044C00080930002D5C70E9497D84091000250E027
:1044D00060E070E089E297E00E9444D88AE00E94A0
:1044E000F8BAC6C780916D0C83FDC2C783E50E94F0
:1044F000B467882309F4BCC70E9471650E9417FF46
:104500006436710514F064E670E07093790C609382
:10451000780C0E941C9F61E080E00E94379EA8C733
:104520000E948B84A5C783E50E94B467882309F4A1
:104530009FC70E944D65182F90E0CD970CF01CE3AB
:104540001093FF020E94A0E56B017C01212F30E057
:10455000A8EEB3E00E946BFDC60ED71EE81EF91E42
:10456000C092FB02D092FC02E092FD02F092FE02A9
:104570007FC780916E0C8F7D806180936E0C78C7B1
:1045800080916E0C8F7E806280936E0C71C783E584
:104590000E94B4678823E9F00E94A0E56093630C51
:1045A0007093640C8093650C9093660C0E94716507
:1045B00020E030E04AE754E40E942FF70E941EFFFB
:1045C00060930102709302028093030290930402AD
:1045D0004FC78091211284FF02C00C94B82B8091A8
:1045E000231287FF02C00C94B82B80912412837091
:1045F00011F00C94B82B0C94E92B83E50E94A8656C
:10460000882309F435C70E94A0E56093630C70937A
:10461000640C8093650C9093660C0E94716520E099
:1046200030E04AE754E40E942FF70E941EFF609397
:10463000000370930103809302039093030318C750
:104640000E94A78A87FD14C79091211294FD04C08F
:104650009091231297FF0AC07EE7C72E72E0D72EF3
:10466000E7E0EE2EE9E0FE2E10E009C09091241262
:10467000937091F7682F81E00E94B190F9C6D6013E
:104680008D916D010E94B467882309F46DC01330C9
:1046900009F063C00E9471654B015C0120E030E0CD
:1046A00040EA51E40E94C9F687FF4EC0A50194017B
:1046B00060912709709128098091290990912A0910
:1046C0000E94A5FE2B013C019B01AC0160912D04D1
:1046D00070912E0480912F04909130040E942FF746
:1046E00060932D0470932E0480932F0490933004D4
:1046F000A3019201609137097091380980913909BD
:1047000090913A090E942FF7609337097093380906
:104710008093390990933A0960913D0470913E0469
:1047200080913F04909140040E94CEF6A301920133
:104730000E942FF70E941EFF60933D0470933E0479
:1047400080933F0490934004809227099092280917
:10475000A0922909B0922A0907C00E947165F70149
:10476000648B758B868B978B1F5FF4E0EF0EF11CCB
:10477000143009F084CF0E94BB337AC60E94A9A5E9
:1047800089EF9FE00E94CFE273C60E9431B070C6ED
:104790008091630A9091640A009741F0DC012C91AA
:1047A000222321F060E00E94089562C60E94C86240
:1047B0005FC60091630A1091640A94E0F12C40E016
:1047C000915021F1F8018081282F2B7F213421F491
:1047D00021812133D9F407C08035C1F48181805310
:1047E0008A3048F013C0813421F0853421F441E04F
:1047F00002C0FF24F39498012E5F3F4F89012F5F81
:104800003F4FF80180818032C9F3DACF41110E9415
:1048100097D8FF2021F08DE397E00E949ED7C80132
:104820000E9403BC25C60E94299322C61092820AC8
:104830001092810A0E9453931BC66FEF7FEF89E4A9
:104840000E94C1671091351080936C0A80E50E9428
:10485000A865811102C011500BC080910403909192
:104860000503892B21F00E944D65182F01C01FEF11
:1048700087E50E94A865882351F0809104039091F8
:104880000503892B31F00E944D65082F03C000E01D
:1048900001C00FEF82E40E94A865882351F0809147
:1048A000040390910503892B31F00E944D65F82E89
:1048B00004C0F12C02C0FF24FA9485E50E94A8658B
:1048C000882351F08091040390910503892B31F0E6
:1048D0000E944D65E82E04C0E12C02C0EE24EA944B
:1048E00082E50E94A865882349F080910403909195
:1048F0000503892B29F00E944D6503C080E001C0AB
:104900008FEF8983EA82FB820C831D8360E0CE01F6
:1049100001960E94144EACC50E94A78A182F87FDED
:10492000A7C500918B0C84E40E94B467882309F426
:1049300053C70E9471656B017C0120E030E0A90142
:104940000E94C9F6882339F124E01202F0011124F3
:10495000E957F34FC082D182E282F38220E030E057
:10496000A9016091870C7091880C8091890C9091BD
:104970008A0C0E94C9F681110CC080E090E0A0EE84
:10498000BFE38093870C9093880CA093890CB0931D
:104990008A0C01E021C780E080938B0C0E94FC749C
:1049A00067C50E94A78A87FD63C56EE7E62E62E0B1
:1049B000F62E07E019E0D7018D917D010E94A865D0
:1049C000882359F00E9471650E941EFFF8016083E0
:1049D0007183828393830E9474330C5F1F4FF9E0CD
:1049E00007311F0741F744C50E94A78A87FD40C5CC
:1049F0004EE7E42E42E0F42E07E019E057E1C52E21
:104A000059E0D52ED7018D917D010E94A86588239C
:104A100039F00E947165F80164A375A386A397A37A
:104A20000C5F1F4FC016D10669F722C58091221274
:104A300087FDD7C6809123128E7009F0D2C64091AF
:104A40003B0950913C0960913D0970913E0981E418
:104A500097E00E9462D840913F09509140096091CF
:104A60004109709142098EED9AE20E9462D840910C
:104A700043095091440960914509709146098CE5BC
:104A80009DE00E9462D88AE00E94F8BAF1C438E939
:104A9000E32E3CE0F32E10E088E5810F0E94A8652C
:104AA000882359F00E947165D7016D937D938D9392
:104AB0009C931397812F0E947E771F5FB4E0EB0ECB
:104AC000F11C133049F70E941C7ED2C40E94C28F91
:104AD000CFC483E50E94B467882331F00E943D650E
:104AE00070932C0260932B028091211290912212DC
:104AF000A0912312B0912412892B8A2B8B2B09F0C1
:104B0000B7C460912B0270912C0281E597E00E945E
:104B100073D885E20E94F8BA8AE00E94F8BAA8C465
:104B20000E94A78AF82E87FDA3C483E50E94B4677C
:104B30000F2D0F2C000C110B882369F10E943D658D
:104B4000F801EE0FFF1FE35DFD4F71836083000FDF
:104B5000111F000F111FF801EC5EFD4F7F01072EA2
:104B6000000C880B990B0E94D0F62AE037ED43E247
:104B70005CE30E942FF7F801EF53F64F208131815B
:104B8000428153810E942FF7D7016D937D938D93BE
:104B90009C9313976DC40E9497D885E40E94F8BA3D
:104BA00080E38F0D0E94F8BA000F111FF801E35D3A
:104BB000FD4F6081718185E597E00E9473D885E2A1
:104BC0000E94F8BA8AE00E94F8BA52C40E946DAA04
:104BD0004FC460E085E40E94D467811173C080E512
:104BE0000E94A865882351F00E9471656093900D22
:104BF0007093910D8093920D9093930D89E40E9490
:104C0000A865882381F00E9471652CEA35EC47E2A3
:104C10005EE30E942FF76093940D7093950D80933F
:104C2000960D9093970D84E40E94A865882381F0E7
:104C30000E9471652CEA35EC47E25EE30E94A5FE16
:104C40006093980D7093990D80939A0D90939B0D9E
:104C50000E9497D84091900D5091910D6091920DC6
:104C60007091930D85E697E00E9462D82CEA35ECAE
:104C700047E25EE36091940D7091950D8091960DE1
:104C80009091970D0E94A5FEAB01BC0181E697E0D3
:104C90000E9462D82CEA35EC47E25EE36091980D01
:104CA0007091990D80919A0D90919B0D0E942FF714
:104CB000AB01BC018DE597E00E9462D88AE00E94BA
:104CC000F8BAD6C30E9493D889E697E00E949ED78F
:104CD000CFC380E50E94A865882351F00E947165CA
:104CE00060937B0C70937C0C80937D0C90937E0C76
:104CF00089E40E94A865882381F00E9471652CEAEE
:104D000035EC47E25EE30E942FF760937F0C7093CF
:104D1000800C8093810C9093820C84E40E94A8659F
:104D2000882381F00E9471652CEA35EC47E25EE34E
:104D30000E94A5FE6093830C7093840C8093850C75
:104D40009093860C0E9497D840917B0C50917C0CDC
:104D500060917D0C70917E0C85E697E00E9462D890
:104D60002CEA35EC47E25EE360917F0C7091800C99
:104D70008091810C9091820C0E94A5FEAB01BC0138
:104D800081E697E00E9462D82CEA35EC47E25EE3C8
:104D90006091830C7091840C8091850C9091860CAD
:104DA0000E942FF7AB01BC018DE597E00E9462D80D
:104DB0008AE00E94F8BA5CC383E50E94A865182FB8
:104DC000882371F00E9471650E9417FF7093190289
:104DD0006093180221E0672B09F020E020936C0C0F
:104DE00080E50E94A865882359F02091180230912F
:104DF0001902232B11F00E94616580936C0C38C35B
:104E0000111136C30E9497D884E997E00E949ED77B
:104E100080916C0C882319F087EF92E102C08BE738
:104E200097E00E949ED7609118027091190283E862
:104E300097E00E9473D88FE797E00E949ED718C32F
:104E40000E945A7E15C30E94A53412C38091850A20
:104E5000811139CE81E00E94CC3135CE8091211272
:104E600087FD05C580912312867009F000C50E9458
:104E700097D887EA97E00E949ED7809150020E94BF
:104E800038D8F6C20E94F665F3C26FEF7FEF89E46F
:104E90000E94C167082F6FEF7FEF8AE40E94C1670D
:104EA000182F8AE50E94B467811108C081E50E942D
:104EB000B467D82E882309F4FAC401C0D12CC02EBF
:104EC00081E0800F863008F051C0912E81E0810F83
:104ED000863008F04BC00E9471652B013C01F02E1A
:104EE00007FDF12C07FF02C004E0C02E812E17FD44
:104EF000812C17FF02C014E0912EB5E03B2ECF1499
:104F000008F4B6C2E82C3F9C500111249E1460F1B5
:104F10000E2D10E0DD2071F0F501E00FF11FEE0F16
:104F2000FF1FEE0FFF1FEA50FC4E208131814281AE
:104F3000538103C020E030E0A9010A0D1B1D000FC2
:104F4000111F000F111F0A501C4EC301B2010E9415
:104F5000ABFDF80160837183828393836E2D8F2D67
:104F60000E949BD0E394D2CFF394C9CF0E9493D8F0
:104F70008CEE95E00E949ED77BC287E00E94B177BD
:104F8000811176C204EB18E02FE63DE03DAB2CAB7F
:104F9000AE014F5F5F4F1A0170EFC72E7FE0D72E33
:104FA0007A01F8016591759185919491ACA9BDA99B
:104FB0008D909D90AD90BD90BDABACABA501940123
:104FC0000E94AAFD2B013C01F7016083718382835B
:104FD000938320E030E040EA51EC0F940B0087FD12
:104FE0000AC020E030E040EA51E4C301B2010E946F
:104FF000C9F618162CF4F601849118160CF45EC448
:10500000D7018D909D90AD90BD907D0120E030E066
:1050100040EA51ECC501B4010F940B0087FD59C45F
:1050200020E030E040EA51E4C501B4010E94C9F635
:1050300018160CF05AC44DC40E94442D19C20E9487
:1050400017D916C261E083E50E94E06791E08927E5
:105050000E94BFDA0DC281E08093E7130E942EBD4B
:105060001092E713882309F403C20E9497D888E1BD
:1050700098E00E949ED7FCC180912C1082FF04C052
:10508000806480932C10F4C183FFF2C10E9462A758
:10509000EFC10E94F18DECC10E94A78A082F87FD05
:1050A000E7C185E50E94A8658823B1F1E02E002EB6
:1050B000000CFF080E9471654B015C0120E030E0AC
:1050C000A9010F940B0087FF04C0B7FAB094B7F89A
:1050D000B094C70153E0880F991F5A95E1F79C01DE
:1050E00023513C4E7901D9018D929D92AD92BC9293
:1050F000139720E030E048E453E4C501B4010F9475
:105100000B0018164CF480E090E0A8E4B3E4F7013B
:1051100080839183A283B3838CE40E94A865882353
:1051200009F4A6C1002E000C110B0E9471656B01E1
:105130007C0120E030E0A9010F940B0087FF04C040
:10514000F7FAF094F7F8F09420E030E048E453E404
:10515000C701B6010F940B00980143E0220F331FE3
:105160004A95E1F7F901E351FC4E18162CF0C48280
:10517000D582E682F7827CC180E090E0A8E4B3E4C7
:1051800084839583A683B78373C10E94DD8C70C12D
:105190000E94A78A182F87FD6BC18AE50E94B46719
:1051A000882381F040E050E0BA018AE50E94437E06
:1051B0004B015C0120E030E0A9010F940B001816B0
:1051C000B4F506C0812C912C90EAA92E91E4B92E59
:1051D00080E090E0A0EAB0E489839A83AB83BC834B
:1051E0002091770D3091780D4091790D50917A0D85
:1051F000C501B4010E94ABFD6B017C0120E030E0F1
:105200004AE753E40E94C9F687FD06C0C12CD12CA1
:105210008AE7E82E83E4F82ECC8EDD8EEE8EFF8EAC
:10522000BE016F5F7F4FCE014C960E949D7C85E54D
:105230000E94A865882329F00E9471656B017C019A
:105240000AC028E01202F0011124E351FC4EC08094
:10525000D180E280F38020E030E0A901C701B601EF
:105260000F940B0087FF04C0F7FAF094F7F8F0945E
:10527000F7FAF094F7F8F094C982DA82EB82FC82B4
:1052800080E00E943E4D882321F0CE0101960E94CD
:10529000AC4C20E030E0A901C501B4010F940B0033
:1052A00018160CF0E5C080E090E0A0EAB0E4898335
:1052B0009A83AB83BC83A50194016091770D7091B3
:1052C000780D8091790D90917A0D0E94AAFD6B0165
:1052D0007C0120E030E0A9010F940B0018161CF0AF
:1052E000C12CD12C7601CC8EDD8EEE8EFF8EBE01D0
:1052F0006F5F7F4FCE014C960E949D7CB9C089E4C0
:105300000E94A86581111BC383E50E94A8658111D5
:1053100016C34FC381E080934C0C1092E50360E00C
:1053200083E50E94E0678111A3C00E946E88A0C03F
:1053300083E50E94A865882339F00E946165809307
:10534000F5130E94454C94C00E9497D881E698E0DE
:105350000E949ED78091F5130E9438D889C00E9480
:10536000D08A86C00E9478936B017C016D337105F1
:105370008105910520F086EA98E00E94E2B082EA79
:1053800098E00E94E2B084EE8093680A0E943D4C4F
:105390000E9498988EE898E00E949ED74DE3C4162C
:1053A000D104E104F10498F119828FEF8A831B8202
:1053B0001C821FE71D8360E0CE0101960E94144EFF
:1053C00081E08093080383E898E00E94499520E0FB
:1053D00030E04AE758E063E878E082E00E94D3508A
:1053E00040E060E375E780E090E00E9459B880916A
:1053F0000803882361F019821A821B821C821D8394
:1054000060E0CE0101960E94144E1092080386E7D8
:1054100098E09093880A8093870A2AC00E94F6E554
:1054200027C000911E1210911F120E94A0E56093E8
:10543000630C7093640C8093650C9093660C00234E
:10544000B9F00E9497D884E50E94F8BAB80177278E
:10545000072E000C880B990B0E946CBB80E20E9407
:10546000F8BA89E697E00E949ED702C00E94F6E54E
:105470005DAD511102C00E945E8888AD8093070324
:10548000B1C20E94A534109253021092FA02709099
:105490005E0D80E00E9431D50E94A0E56093630C10
:1054A0007093640C8093650C9093660C0E94807BD3
:1054B00081E08093820A0E9453938AE50E94A86546
:1054C000082F8823A1F081E00E949E77F82E82E0C9
:1054D0000E949E7711E0811101C010E0F11009C017
:1054E00088E50E94A865E82E811103C0D8C010E0AD
:1054F000F7CF112309F4C9C00113D5C0FF24F394D9
:10550000EE24E39411E082E50E94B467882319F049
:105510000E94716503C060E070E0CB016CA37DA3C5
:105520008EA39FA320E030E0A9010E94C9F6882342
:1055300059F0E11005C0F11003C0112309F497C020
:10554000CE0184960E94F462EE2019F080E00E9461
:10555000BBE8FF2019F081E00E94BBE8112309F4A9
:1055600086C083E00E94B177811181C00E941A7EBB
:105570002090770D3090780D4090790D50907A0DF5
:105580002091A5143091A6144091A7145091A8140D
:1055900060E070E08CED92E40E94AAFD6B017C015A
:1055A0006093B1097093B2098093B3099093B409E1
:1055B0002091A9143091AA144091AB145091AC14CD
:1055C00060E070E08CED92E40E94AAFD4B015C016A
:1055D0006093B5097093B6098093B7099093B809A1
:1055E0002091AD143091AE144091AF145091B0148D
:1055F000C201B1010E94AAFD6093B9097093BA0972
:105600008093BB099093BC0927E137EB41ED58EB40
:10561000C501B4010F940B0087FD1EC027E030E0E8
:105620004CE553E4C501B4010E94C9F61816A4F074
:1056300027E137EB41ED58EBC701B6010F940B00A2
:1056400087FD0AC027E030E04CE553E4C701B6010E
:105650000E94C9F618165CF560E08DEA95E00E949C
:10566000A2940E9497D88BE995E00E949ED70E9451
:105670001A7E8091810A8093820A872D0E9431D5FB
:105680000E94677B0E941C7EF3CE11E089E50E9498
:10569000A865F82E811709F42FCFE12E06C011233B
:1056A000A9F3F12E02C0F12EE12E102F2CCF1C8E6B
:1056B0001D8E1E8E1F8E88E0E1EBF9E0DE01119653
:1056C00001900D928A95E1F7AE01445E5F4FBE01F5
:1056D0006B5F7F4FCE0101960E947B7C82E00E942F
:1056E000BBE8C5CF88E50E94A86581115F9889E570
:1056F0000E94A86581118A988AE50E94A86588237E
:1057000029F08091080181708093060185E40E9450
:10571000A865882309F4ACCE1298AACE60E085E291
:1057200096E00E94A2940E94144CA2CE0E943D6575
:105730000E9415889DCEA3019201C501B4010F946A
:105740000B00181694F082E197E09F938F9388EDF9
:105750009DE09F938F931F920E94D9E70F900F9027
:105760000F900F900F900C94A82187E390E1EDCF5C
:105770000E94A53488E50E94A865882331F05F9ACD
:105780008091840A8E7F8093840A89E50E94A865AF
:10579000882331F08A9A8091840A8D7F8093840ACD
:1057A0008AE50E94A865882359F0809108018095B8
:1057B0008170809306018091840A8B7F8093840A94
:1057C00085E40E94A865882309F452CE0E946045B2
:1057D0004FCE0E9415364CCE602F83E50E94E067C5
:1057E000DBC883E50E94B467882391F00E9471654D
:1057F00060933B0970933C0980933D0990933E0967
:105800006093430970934409809345099093460936
:1058100080E50E94B467882351F00E94716560930F
:105820003B0970933C0980933D0990933E0982E5C2
:105830000E94B467882351F00E94716560933F090C
:1058400070934009809341099093420984E50E9436
:10585000B467882309F40CCE0E94716560934309F4
:1058600070934409809345099093460901CE88E4DA
:105870000E94A865882321F00E9461658093060339
:1058800082E50E94A865082F83E50E94A865182F6D
:10589000011103C0882309F4EBCD0E949BD811238A
:1058A00009F4E6CD0E94616580935002E1CD0E942B
:1058B00093D888EB97E00E949ED7DACDB7FAB094E0
:1058C000B7F8B094D7018D929D92AD92BC92139788
:1058D00097CB0E9493D88AEF97E00E949ED761E011
:1058E0008CEE97E00E94A294C3CD0C5F1F4FBFEFD8
:1058F000CB1ADB0AE0ECF8E0E017F10709F051CB36
:1059000068E9E62E6CE0F62E10E0F10181919191AC
:10591000A191B1911F01F70181939193A193B1934B
:105920007F01812F0E947E771F5F133071F70E94E5
:105930001C7E60E088ED97E00E94A29499CD0E94C1
:1059400071656B017C0120E030E040E85FEB0F9473
:105950000B0087FD29C020E030E040E85FE3C7018D
:10596000B6010E94C9F61816FCF02091091030917A
:105970000A1040910B1050910C10C701B6010E9403
:10598000C9F6882309F474CDC0920910D0920A1088
:10599000E0920B10F0920C108EEF0E94EC7C0E94B3
:1059A0001A7E0E941C7E64CD87E398E00E949ED7F9
:1059B0005FCD0E9497D889E298E00E949ED783E24B
:1059C00098E00E949ED76091091070910A10809112
:1059D0000B1090910C1046E00E9488BB8AE00E9458
:1059E000F8BA46CDED960FB6F894DEBF0FBECDBF28
:1059F000DF91CF911F910F91FF90EF90DF90CF90AB
:105A0000BF90AF909F908F907F906F905F904F90DE
:105A10003F902F900895CF93DF938091E30F909163
:105A2000E40F891B8F708F3021F480E00E94624563
:105A3000F4CF8091E30F8F5F8F70A091E30F9BE411
:105A40009A9FD0011124FD01EB5AFB4FEF011992EF
:105A50009A95E9F798E09083A659BB4F90E1E9EF5A
:105A6000FFE001900D929A95E1F72091E30F90915C
:105A7000E40F291303C094E69093E00F8093E30FA3
:105A8000DF91CF910C947877CF92DF92EF92FF92D3
:105A90000F931F93CF93DF93CDB7DEB7CE5AD109C3
:105AA0000FB6F894DEBF0FBECDBFCF55DF4F1882C3
:105AB00019821A821B82C15AD0408091E1029091D2
:105AC000E202A091E302B091E402CB55DF4F88835C
:105AD0009983AA83BB83C55AD040C755DF4F19822B
