:100000000C9455100C9486100C9486100C94861049
:100010000C9486100C9486100C9486100C94861008
:100020000C9486100C9486100C9486100C948610F8
:100030000C9486100C9486100C9486100C948610E8
:100040000C9486100C94C55D0C9486100C9486104C
:100050000C9486100C9486100C94C57E0C94FD7B39
:100060000C9486100C9424950C9486100C94861095
:100070000C9486100C9486100C9486100C948610A8
:100080000C9486100C9486100C9486100C94861098
:100090000C94B7930C94E0930C9486100C948610F7
:1000A0000C9486100C9486100C9486100C94861078
:1000B0000C9486100C9486100C9486100C94861068
:1000C0000C9486100C9486100C9486100C94861058
:1000D0000C9486100C9486100C9486100C94861048
:1000E0000C9486100A2D1C2D232A5B2AC12AFB2A78
:1000F000612B992BFF2B232C602A772A002B172B9F
:100100009E2BB52B5D2C812CA52ABC2A452B5C2B64
:10011000E32BFA2BA72CD52CAF2DB42D4A2D5E2D19
:10012000B72DC22DFB2D092E162E222E452E8B2EDD
:10013000502FDC2F3A2D2E2D2C30973152307C3021
:10014000A630D030FA3097319731973197319731C7
:100150009731973197319531343136319731973125
:100160002431392FCE2E032F1A2FFC40FF4002419D
:10017000054108410B410E411141144117411A41FB
:100180001D4120411D7A207A0F7A137A197A577A05
:10019000247A287A2E7A327A367A3C7A407A447AED
:1001A000577A4A7A4E7A527AE97AEE7AF37AFD7A77
:1001B000077B807B117B197B217B2B7B357B3F7BF6
:1001C0004E7B587B807B627B6C7B767B57955D9505
:1001D0006E957995819596958595969589958D9548
:1001E000969593952D988396B29601973B980E9786
:1001F000159745972D984C972D98084AD73B3BCE9D
:10020000016E84BCBFFDC12F3D6C74319ABD568315
:100210003DDA3D00C77F11BED9E4BB4C3E916BAACD
:10022000AABE000000803F05A84CCDB2D44EB9381C
:1002300036A9020C50B9918688083CA6AAAA2ABE03
:10024000000000803F07634236B79BD8A71A396881
:100250005618AEBAAB558C1D3CB7CC5763BD6DED8F
:10026000FD753EF6177231BF000000803F080000A8
:1002700000BE922449123EABAAAA2ABECDCCCC4CD9
:100280003E00000080BEABAAAAAA3E00000000BF4C
:10029000000000803F0000000000084178D3BB430D
:1002A00087D1133D190E3CC3BD4282AD2B3E68EC95
:1002B0008276BED98FE1A93E4C80EFFFBE01C4FF1C
:1002C0007F3F0000000000004E414E494E49545906
:1002D000494E46CDCCCC3D0AD7233C17B7D1387711
:1002E000CC2B329595E6241FB14F0A000020410027
:1002F00000C84200401C4620BCBE4CCA1B0E5AAE71
:10030000C59D7400407A10F35A00A0724E1809007F
:1003100010A5D4E80000E87648170000E40B54026A
:100320000000CA9A3B000000E1F5050000809698A5
:1003300000000040420F000000A0860100000010F5
:100340002700000000E80300000000640000000037
:10035000000A00000000000100000000002C76D818
:1003600088DC674F0823DFC1DFAE59E1B1B796E5FE
:10037000E3E453C63AE651997696E8E6C28426EB62
:10038000898C9B62ED407C6FFCEFBC9C9F40F2BA75
:10039000A56FA5F490055A2AF75C936B6CF9676D0D
:1003A000C11BFCE0E40D47FEF520E6B500D0ED9062
:1003B0002E0300943577050080841E080000204E2F
:1003C0000A000000C80C333333330F986E128311C8
:1003D00041EF8D2114893BE65516CFFEE6DB18D19F
:1003E000844B381BF77C1D901DA4BBE42420328471
:1003F000725E228100C9F124ECA1E53D27434F4DF7
:100400004D554E49434154494F4E0044525952555F
:100410004E004552524F525300494E464F004543FD
:10042000484F0047322F4733206261642070617269
:10043000616D65746572730A00456E642066696C4F
:1004400065206C6973740A00426567696E2066698D
:100450006C65206C6973740A004D323030330028AB
:100460006E6F2066696C6529005344207072696E56
:1004700074696E67206279746520004E6F74205332
:1004800044207072696E74696E670A0043757272F7
:10049000656E742066696C653A20002569730025D5
:1004A000696D20256973002569682025696D2025FF
:1004B000697300256964202569682025696D2025F8
:1004C00069730025697920256964202569682025DC
:1004D000696D20256973005072696E742074696DAE
:1004E000653A20001E04190412040B04FD036F6614
:1004F000660044454255473A004D313133205300A0
:100500006F6B0020573A002C20002C2000544845E7
:10051000524D414C5F50524F54454354494F4E0049
:100520004155544F5245504F52545F53445F5354BA
:100530004154555300454D455247454E43595F5030
:10054000415253455200434153455F4C494748543B
:100550005F4252494748544E45535300544F474712
:100560004C455F4C494748545300534F46545741FC
:1005700052455F504F574552004255494C445F50D9
:10058000455243454E54004C4556454C494E475FF5
:1005900044415441005A5F50524F42450041555426
:1005A0004F4C4556454C005052494E545F4A4F42BD
:1005B0000050524F4752455353004155544F5245F6
:1005C000504F52545F54454D5000564F4C554D4579
:1005D0005452494300454550524F4D0053455249EE
:1005E000414C5F584F4E5F584F4646004649524D6A
:1005F000574152455F4E414D453A4D61726C696EAF
:1006000020312E312E3920284769746875622920DF
:10061000534F555243455F434F44455F55524C3A03
:1006200068747470733A2F2F6769746875622E63EB
:100630006F6D2F4D61726C696E4669726D77617274
:10064000652F4D61726C696E2050524F544F434F6D
:100650004C5F56455253494F4E3A312E30204D4152
:100660004348494E455F545950453A3344205072EF
:10067000696E7465722045585452554445525F4323
:100680004F554E543A3120555549443A6365646597
:10069000326132662D343161322D343734382D39A0
:1006A0006231322D633535633632663336376666EE
:1006B0000A002F2F20002054002052004163636560
:1006C0006C65726174696F6E3A20500020666972C1
:1006D00073740A005A0059005800486F6D65200075
:1006E000546F6F206661722066726F6D207265664E
:1006F0006572656E636520706F696E740A00205ABA
:1007000000205900580020204D61783A2000205ADE
:1007100000205900580020204D696E3A20004F6E8D
:1007200020004F666600536F667420656E647374B4
:100730006F70733A200020466C6F773A20000001FA
:1007400036372603FFFFFF353C3D380EFFFFFF31F4
:100750002E303E23FFFFFFFF28FF0C0809FFFFFF9D
:100760001A1C18FFFF2A08440AFF4320643A00209D
:10077000693A0020703A00496E76616C69642065C0
:10078000787472756465720A0043290A0061626CAC
:10079000656420286D696E2074656D702000436F5C
:1007A0006C6420657874727564657320617265206D
:1007B000004E6F2063617365206C696768740A007E
:1007C000454550524F4D204F4B0A004163746976A6
:1007D000652045787472756465723A2000496E76BA
:1007E000616C69642065787472756465720A004D85
:1007F0003130362050256920532569004D3130397C
:1008000020532569004D3139302053256900256C6E
:1008100075206820256C75206D004731205A3130D5
:10082000004731205A3000473120583131302059AB
:10083000313130204633303030004731205A3130AA
:1008400000473238004731205A30004731205833B2
:100850003020593139302046333030300047312094
:100860005A313000473238004731205A3000473182
:10087000205831393020593139302046333030302A
:10088000004731205A313000473238004731205A72
:100890003000473120583139302059333020463329
:1008A000303030004731205A31300047323800476D
:1008B00031205A300047312058333020593330200E
:1008C0004633303030004731205A3130004732381B
:1008D000004D32303036004D32303035004D313041
:1008E0003920532569004D32303035004D323030DB
:1008F00034004D31303920532569004D32303034C9
:10090000004D3230303100473238205A3000473203
:1009100038205830205930004572726F722077723B
:100920006974696E6720746F20454550524F4D21A0
:100930000A00454550524F4D206461746173697AD5
:1009400065206572726F722E0A00290A0020627992
:100950007465733B20637263200053657474696E21
:1009600067732053746F726564202800290A002081
:1009700062797465733B2063726320002073746F27
:100980007265642073657474696E67732072657430
:10099000726965766564202800202863616C637540
:1009A0006C6174656429210A0020213D20004545C1
:1009B00050524F4D20435243206D69736D617463F3
:1009C00068202D202873746F7265642920002053DD
:1009D000697A653A2000496E6465783A2000204DB6
:1009E00061726C696E3D563535290A0028454550BF
:1009F000524F4D3D00454550524F4D207665727324
:100A0000696F6E206D69736D617463682000526553
:100A100073656E643A20006F6B0020746F6F206CFA
:100A20006F6E6720657874727573696F6E2070726F
:100A30006576656E7465640A0020636F6C6420657A
:100A40007874727573696F6E2070726576656E74F6
:100A500065640A00627573793A2070617573656424
:100A600020666F7220696E7075740A006275737902
:100A70003A2070617573656420666F7220757365C6
:100A8000720A00627573793A2070726F63657373CE
:100A9000696E670A004B494C4C45442E20004B4977
:100AA0004C4C2063617573656420627920746F6FAC
:100AB000206D75636820696E616374697665207462
:100AC000696D65202D2063757272656E7420636F89
:100AD0006D6D616E643A20004D3235005072696E62
:100AE0007465722068616C7465642E206B696C6C2F
:100AF00028292063616C6C6564210A0000000000F5
:100B000000000000000000000000484200004842D1
:100B100000008040000000005761726E696E673A05
:100B200020486F6D696E672042756D70204469764C
:100B300069736F72203C20310A000202040000A099
:100B4000400000A0400000004000005C4300005C4A
:100B50004300007A43FFFFFF4D33310053442072BE
:100B6000656164206572726F720A00446F6E652061
:100B70007072696E74696E672066696C650A0050F0
:100B800072696E7465722073746F7070656420642E
:100B9000756520746F206572726F72732E204669BE
:100BA0007820746865206572726F7220616E6420AF
:100BB000757365204D39393920746F2072657374EF
:100BC0006172742E202854656D706572617475723F
:100BD000652069732072657365742E2053657420D7
:100BE00069742061667465722072657374617274D1
:100BF000696E67290A004E6F20436865636B7375E1
:100C00006D2077697468206C696E65206E756D6201
:100C100065722C204C617374204C696E653A20001B
:100C20004E6F20436865636B73756D2077697468D8
:100C3000206C696E65206E756D6265722C204C614A
:100C40007374204C696E653A2000636865636B734A
:100C5000756D206D69736D617463682C204C6173D0
:100C600074204C696E653A20004C696E65204E75A3
:100C70006D626572206973206E6F74204C617374AD
:100C8000204C696E65204E756D6265722B312C208B
:100C90004C617374204C696E653A20004D313130DF
:100CA0000048617264636F646564204465666175C1
:100CB0006C742053657474696E6773204C6F616443
:100CC00065640A00E8030000E80300006400000017
:100CD000B80B000000009643000096430000A040BF
:100CE0000000C8410000A0420000A0420000C8432C
:100CF000B032B9422028696E290020286D6D290084
:100D000020440020490020204D3330312050005035
:100D100049442073657474696E67733A0A00205AF7
:100D20000020590020204D323036205800486F6D89
:100D300065206F66667365743A0A00204500205A84
:100D40000020590020580020540020530020204D3E
:100D500032303520510020453C6D61785F655F6A17
:100D600065726B3E0020583C6D61785F785F6A6504
:100D7000726B3E20593C6D61785F795F6A65726B7A
:100D80003E205A3C6D61785F7A5F6A65726B3E0007
:100D9000416476616E6365643A20513C6D696E5FB3
:100DA0007365676D656E745F74696D655F75733EBD
:100DB00020533C6D696E5F66656564726174653E63
:100DC00020543C6D696E5F74726176656C5F666518
:100DD0006564726174653E0020540020520020203A
:100DE0004D323034205000416363656C657261742C
:100DF000696F6E2028756E6974732F7332293A20DB
:100E0000503C7072696E745F616363656C3E205222
:100E10003C726574726163745F616363656C3E20EC
:100E2000543C74726176656C5F616363656C3E0A05
:100E300000204500205A0020590020204D3230313A
:100E40002058004D6178696D756D20416363656C54
:100E500065726174696F6E2028756E6974732F7383
:100E600032293A0A00204500205A0020590020204B
:100E70004D3230332058004D6178696D756D2066B4
:100E800065656472617465732028756E6974732F6B
:100E900073293A0A00204500205A002059002020DA
:100EA0004D3932205800537465707320706572207C
:100EB000756E69743A0A0020204D3230302044307B
:100EC0000A0020204D3230302044002044697361F4
:100ED000626C65640A0046696C616D656E742073AE
:100EE000657474696E67733A00203B0020204732B6
:100EF00000545249474745524544006F70656E00A3
:100F00003A200066696C616D656E74007A5F6D6988
:100F10006E00795F6D696E00785F6D696E00526575
:100F2000706F7274696E6720656E6473746F702081
:100F30007374617475730A00656E717565756569A2
:100F40006E6720220020496E76616C6964206578A6
:100F500074727564657220000000000000000000DB
:100F60000000000000005C4300005C4300007A4386
:100F7000486F6D696E67206661696C6564005072C8
:100F80006F7465637465642050696E0A0020573A77
:100F900000205A3A0020593A0020436F756E7420A1
:100FA000583A0020453A00205A3A0020593A005851
:100FB0003A003A004361703A0023646566696E65E1
:100FC0002044454641554C545F4B642000236465E2
:100FD00066696E652044454641554C545F4B692017
:100FE0000023646566696E652044454641554C544E
:100FF0005F4B702000504944204175746F74756ECA
:10100000652066696E697368656421205075742077
:10101000746865206C617374204B702C204B6920C0
:10102000616E64204B6420636F6E7374616E7473C1
:101030002066726F6D2062656C6F7720696E746FC9
:1010400020436F6E66696775726174696F6E2E6892
:101050000A00504944204175746F74756E652066AE
:1010600061696C6564212074696D656F75740A002F
:10107000453120544845524D414C2052554E415720
:10108000415900546865726D616C2052756E6177CC
:1010900061790045312048656174696E6720666139
:1010A000696C65640048656174696E672066616992
:1010B0006C656400504944204175746F74756E65A9
:1010C000206661696C6564212054656D706572618C
:1010D0007475726520746F6F20686967680A0020F4
:1010E0004B643A2000204B693A2000204B703A2094
:1010F000000A20436C617373696320504944200ADD
:10110000002054753A2000204B753A2000206D6174
:10111000783A2000206D696E3A200020643A200061
:1011200020626961733A2000504944204175746F10
:1011300074756E65206661696C6564212042616426
:10114000206578747275646572206E756D62657263
:101150000A00504944204175746F74756E652073A0
:10116000746172740A0024F4D43050C38E20C2A279
:101170004017828B7011127A910D816CD90AA86187
:10118000E108C7586607615143061E4B5D05C1451E
:10119000A7041A411104093D9803713931034036FF
:1011A000DB0265339102D4305402802E1D02632C81
:1011B000EE01752AC501B028A001102781018F25F5
:1011C00064012B244B01E0223401AC211F018D204E
:1011D0000D01801FFC00841EED00971DDF00B81C70
:1011E000D200E61BC600201BBC00641AB200B21974
:1011F000A8000A19A0006A189900D1179100401799
:101200008B00B516840031167E00B31579003A15AF
:101210007300C7146F0058146A00EE136600881339
:10122000630025135E00C7125B006C125700151295
:101230005400C111510070114F0021114B00D61004
:1012400049008D1047004610440002104200C00FB4
:101250004000800F3E00420F3C00060F3B00CB0ECB
:101260003800930E37005C0E3500270E3400F30D66
:101270003200C10D3100900D3000600D2E00320D96
:101280002D00050D2C00D90C2B00AE0C2900850C6F
:1012900029005C0C2700350C27000E0C2600E80BFB
:1012A0002400C40B2400A00B23007D0B23005A0B49
:1012B0002100390B2100180B2000F80A1F00D90A61
:1012C0001E00BB0A1E009D0A1D00800A1D00630A45
:1012D0001C00470A1B002C0A1B00110A1A00F70900
:1012E0001A00DD091900C4091900AB091900920997
:1012F00017007B091800630917004C09160036090E
:101300001600200916000A091500F5081500E00866
:101310001400CC081400B8081400A40814009008A5
:1013200013007D0812006B081300580812004608CD
:1013300012003408110023081100120811000108DE
:101340001100F0071000E0071000D0071000C007E0
:101350001000B0070F00A107100091070E008307CF
:101360000F0074070F0065070E0057070E004907AE
:101370000E003B070D002E070E0020070D0013077F
:101380000D0006070D00F9060C00ED060D00E00645
:101390000C00D4060C00C8060C00BC060C00B006FD
:1013A0000C00A4060B0099060C008D060B008206AB
:1013B0000B0077060B006C060B0061060A0057064F
:1013C0000B004C060A0042060A0038060A002E06E8
:1013D0000A0024060A001A060A0010060900070679
:1013E0000A00FD050900F4050900EB050900E20506
:1013F0000900D9050900D0050900C7050900BE0587
:101400000900B5050800AD050800A50509009C0503
:101410000800940508008C050800840508007C0578
:101420000800740508006C050700650508005D05E7
:101430000700560508004E05070047050700400550
:10144000080038050700310507002A0507002305B5
:1014500007001C050600160507000F050700080514
:10146000060002050700FB040600F5040700EE0471
:101470000600E8040600E2040700DB040600D504C9
:101480000600CF040600C9040600C3040600BD041C
:101490000600B7040600B1040500AC040600A6046B
:1014A0000600A00405009B040600950405009004B6
:1014B00006008A04050085040500800406007A04FD
:1014C000050075040500700405006B040500660442
:1014D0000500610405005C04050057040500520482
:1014E00005004D04050048040500430405003E04C2
:1014F00004003A04050035040500300404002C04FF
:10150000050027040400230405001E0404001A0437
:10151000040016040500110404000D04040009046D
:1015200005000404040000040400FC030400F803A4
:101530000400F4030400F0030400EC030400E803D7
:101540000400E4030400E0030400DC030400D80307
:101550000400D4030400D0030400CC030400C80337
:101560000300C503030024F404D9201BC40C5C0E43
:101570009804C4095F0265077101F405F900FB04D2
:10158000B30048048700C1036900580355000303F2
:101590004500BE023A008402310053022A002902AB
:1015A000250004022000E4011C00C8011900AF015D
:1015B00017009801140084011300710110006101EB
:1015C000100051010E0043010D0036010B002B01EC
:1015D0000B0020010B00150109000C01090003019B
:1015E0000800FB000800F3000800EB000700E4001F
:1015F0000600DE000600D8000600D2000600CC007F
:101600000500C7000500C2000500BD000400B900C8
:101610000400B5000400B1000400AD000400A900FE
:101620000400A5000300A20003009F0004009B002B
:10163000030098000300950002009300030090004F
:1016400003008D0002008B0003008800020086006A
:10165000020084000300810002007F0002007D0080
:1016600002007B0002007900020077000100760092
:1016700002007400020072000100710002006F009D
:1016800002006D0001006C0002006A0001006900A8
:1016900002006700010066000100650001006400AF
:1016A00002006200010061000100600001005F00B3
:1016B00002005D0001005C0001005B0001005A00B7
:1016C00001005900010058000100570001005600B8
:1016D00001005500010054000100530000005300B8
:1016E00001005200010051000100500001004F00B4
:1016F00001004E0000004E0001004D0001004C00B2
:1017000001004B0000004B0001004A0001004900AD
:1017100001004800000048000100470001004600A9
:1017200000004600010045000000450001004400A3
:10173000010043000000430001004200000042009D
:1017400001004100000041000100400001003F0095
:1017500000003F0001003E0000003E0001003D008F
:1017600000003D0001003C0000003C0000003C0087
:1017700001003B0000003B0001003A0000003A007D
:101780000100390000003900010038000000380075
:10179000000038000100370000003700010036006B
:1017A0000000360000003600010035000000350062
:1017B0000000350001003400000034000000340057
:1017C000010033000000330000003300010032004C
:1017D0000000320000003200010031000000310042
:1017E0000000310001003000000030000000300037
:1017F00001002F0000002F0000002F0000002F002C
:1018000001002E0000002E0000002E0001002D001F
:1018100000002D0000002D0000002D0001002C0014
:1018200000002C0000002C0000002C0001002B0008
:1018300000002B0000002B0000002B0001002A00FC
:1018400000002A0000002A0000002A0001002900F0
:1018500000002900000029000000290000002900E4
:1018600001002800000028000000280000002800D7
:1018700000002800010027000000270000002700CA
:1018800000002700000027000100260000002600BD
:1018900000002600000026000000260001002500B0
:1018A00000002500000025000000250000002500A4
:1018B0000000250001002400000024000000240096
:1018C0000000240000002400010023000000230089
:1018D000000023000000230000002300000023007C
:1018E000000023000100220000002200000022006E
:1018F0000000220000002200000022000100210060
:101900000000210000002100000021000000210053
:101910000000210000002100010020000000200044
:101920000000200000002000000020000000200037
:10193000000020000000200001001F0000001F0028
:1019400000001F0000001F0000001F0000001F001B
:1019500000001F0001001E0000001E0000001E000D
:1019600000001E000000043700001E290000511B6B
:1019700000005810000010090000CC04000078029C
:101980000000410100006265640A002C2073797335
:1019900074656D2073746F70706564212048656193
:1019A0007465725F49443A2000426564206865614D
:1019B00074696E67206661696C656400486561746E
:1019C000696E67206661696C656400453120486511
:1019D0006174696E67206661696C65640048656161
:1019E00074696E67206661696C6564004B494C4C94
:1019F00045442E2000000020002300260029002C52
:101A0000002F00320000010000030106010901055A
:101A1000050505070508080808020202020A0A0867
:101A2000080404040401010101010101010303038D
:101A30000303030303040707070C0C0C0C0C0C0C2A
:101A40000C0202020206060606060606060B0B0B31
:101A50000B0B0B0B0B01021020200808102040106C
:101A60002040800201020108040201010204081062
:101A70002040808040201008040201800402018080
:101A800040201008040201080402010102040810A9
:101A9000204080010204081020408000000A0B0250
:101AA000090C0D0E080703040100000000000000EF
:101AB0000000000000000000000000000000000026
:101AC00000000000000000121110000000000000E3
:101AD0000000000000000000000000000000000006
:101AE000002020506C616E6E65724275666665728C
:101AF00042797465733A20002046726565204D6511
:101B00006D6F72793A2000436F6D70696C65643A4D
:101B1000204F637420333120323031390A00207C69
:101B200020417574686F723A20286E6F6E652C20A4
:101B300064656661756C7420636F6E666967290AF7
:101B400000323031382D30382D303100204C617367
:101B50007420557064617465643A2000312E312E12
:101B6000390A004D61726C696E0020536F6674779C
:101B70006172652052657365740A00205761746351
:101B800068646F672052657365740A002042726F43
:101B9000776E206F75742052657365740A00204556
:101BA000787465726E616C2052657365740A0050BA
:101BB0006F77657255700A0073746172740A004D14
:101BC0003230303000473238205830004731205A08
:101BD000313000473931004D3234004D3233202549
:101BE00073006175746F25692E67006572726F727C
:101BF0002077726974696E6720746F2066696C65FE
:101C00000A00205A3A0020593A0020583A00656EDE
:101C10006473746F7073206869743A2000446F6E47
:101C20006520736176696E672066696C652E0A00AF
:101C30004D32390020746F6F206C6F6E67206578AD
:101C400074727573696F6E2070726576656E7465F7
:101C5000640A0020636F6C64206578747275736920
:101C60006F6E2070726576656E7465640A00506FE1
:101C70007765722D6C6F73732066696C652077725F
:101C8000697465206661696C65642E0A006F706511
:101C90006E206661696C65642C2046696C653A202B
:101CA0000057726974696E6720746F2066696C658D
:101CB0003A200053442063617264206F6B0A006F06
:101CC00070656E526F6F74206661696C65640A009E
:101CD000766F6C756D652E696E6974206661696CCE
:101CE00065640A00534420696E6974206661696CFA
:101CF0000A0057726974696E6720746F2066696C98
:101D0000653A20006F70656E206661696C65642CB1
:101D10002046696C653A20006F70656E20666169C7
:101D20006C65642C2046696C653A200046696C65D8
:101D30002073656C65637465640A002053697A6575
:101D40003A200046696C65206F70656E65643A20C4
:101D5000002066696C653A2000646F696E670066F2
:101D600072657368004E6F772000454E44205355CE
:101D700042524F5554494E450A002220706F73005D
:101D80002220706172656E743A2200535542524FA0
:101D90005554494E452043414C4C2074617267654F
:101DA000743A22004B494C4C45442E200074727901
:101DB000696E6720746F2063616C6C207375622D8F
:101DC00067636F64652066696C6573207769746802
:101DD00020746F6F206D616E79206C6576656C7311
:101DE0002E204D4158206C6576656C2069733A0051
:101DF0004572726F723A0046696C652064656C6565
:101E00007465643A0044656C6574696F6E20666140
:101E1000696C65642C2046696C653A20006F7065BA
:101E20006E206661696C65642C2046696C653A2099
:101E30000070012C0190012701B0012201C0011D99
:101E400001F00118011002130130020E01600209B5
:101E50000190020401C002FF000003FA004003F5F4
:101E6000008003F000D003EB002004E6007004E1E2
:101E700000E004DC004005D700C005D2004006CDDC
:101E800000D006C8008007C3003008BE00F008B9C3
:101E900000C009B400B00AAF00B00BAA00D00CA576
:101EA00000000EA000500F9B00C010960050129131
:101EB0000000148C00C0158700B0178200B0197D97
:101EC00000D01B7800001E730040206E0090226935
:101ED00000F024640040275F0090295A00E02B5551
:101EE00000102E500020304B0010324600E03341ED
:101EF0000090353C001037370070383200A0392D83
:101F000000B03A2800A03B2300603C1E00103D19A1
:101F100000903D1400103E0F00703E0A00C03E05C8
:101F200000003F0000403FFBFF803FF6FFC03FF155
:101F3000FF453120544845524D414C2052554E41A9
:101F40005741590042454420544845524D414C2088
:101F500052554E4157415900546865726D616C206D
:101F600052756E61776179004531204572723A2071
:101F70004D415854454D50004572723A204D4158DC
:101F800054454D5020424544004D415854454D5014
:101F90002074726967676572656400453120457217
:101FA000723A204D494E54454D50004572723A20C8
:101FB0004D494E54454D5020424544004D494E54E4
:101FC000454D5020747269676765726564004D38CD
:101FD0003420582059205A204500202F002042400C
:101FE0003A0020403A0000002100240027002A0087
:101FF0002D003000330001010000040107010A0137
:1020000000002200250028002B002E0031003400A3
:1020100002010000050108010B017C3C3E5E2B3DE6
:102020003F2F5B5D3B2C2A225C0043616E6E6F7418
:10203000206F70656E20737562646972200065633D
:10204000686F3A0025753A253032750025303275B3
:102050003A25303275006F70656E206661696C6577
:10206000642C2046696C653A20004D32342053259B
:102070006C64004D323320257300473238205230D3
:1020800020583020593000473932205A25732045D6
:10209000257300556E6B6E6F776E20636F6D6D618B
:1020A0006E643A20220008A745A011241FBECFEF7E
:1020B000D1E2DEBFCDBF00E00CBF14E0A0E0B2E093
:1020C000E2EBFEE601E00BBF02C007900D92AA38DA
:1020D000B107D9F72BE1AAE8B4E001C01D92AB33F8
:1020E000B207E1F710E1C4E5D0E100E006C02197B6
:1020F0000109802FFE010E94BDB6C335D10780E0E3
:102100000807A9F70E946AA00C9448B70C94000035
:102110002F923F924F925F926F927F928F929F92F7
:10212000AF92BF92CF92DF92EF92FF920F931F93E5
:10213000CF93DF93CDB7DEB7CF55D1090FB6F89463
:10214000DEBF0FBECDBF91E0909370058091331B31
:102150008D3409F45FC6843511F40C94212587343D
:1021600011F00C9465252090311B3090321B24E136
:102170002216310409F499C594F444E0241631047C
:1021800044F452E0251631040CF03EC037FE35C051
:102190003DC684E02816310409F452C537C6AAE5C5
:1021A0002A16310409F4B2C55CF4E5E12E163104B7
:1021B00009F481C5FCE12F16310409F482C526C655
:1021C0002BE52216310409F4A5C53CE5231631049C
:1021D00009F01CC6E5E4F2E0FDA7ECA74EE7C42E2B
:1021E00045E0D42E5DE4852E56E1952E62E9A62EBB
:1021F00064E0B62E612C10E0D0C5809114028111EC
:102200000C946C250C94672580911402882311F49A
:102210000C9467250E94C05482E50E94424788239F
:1022200009F438C10E94EE464B015C0120E030E029
:10223000A9010E94EEAB882309F458C180914D1684
:1022400090914E16A0914F16B09150168CA79DA755
:10225000AEA7BFA720915116309152164091531648
:102260005091541628AB39AB4AAB5BAB80913D160D
:1022700090913E16A0913F16B09140168CAF9DAF45
:10228000AEAFBFAF20914116309142164091431638
:102290005091441628AF39AF4AAF5BAF9C01AD01F6
:1022A0006CA57DA58EA59FA50E94EEAB81110DC0EA
:1022B00028AD39AD4AAD5BAD68A979A98AA99BA9BA
:1022C0000E94EEAB882309F411C111E032E023161D
:1022D000310409F010E020E030E0A901C501B401AB
:1022E0000E94EEAB881F8827881F181759F080E0DE
:1022F00090E0A0E8BFEB28968CAF9DAFAEAFBFAF2C
:1023000028970AC020E030E040E85FE328962CAF31
:102310003DAF4EAF5FAF28972CA53DA54EA55FA55D
:102320006CAD7DAD8EAD9FAD0E9482B224966CAF38
:102330007DAF8EAF9FAF249728A939A94AA95BA981
:1023400068AD79AD8AAD9BAD0E9482B26B017C0114
:1023500024962CAD3DAD4EAD5FAD2497CA01B901B9
:102360000E9453AC2B013C01A7019601C701B601A5
:102370000E9453AC9B01AC01C301B2010E9483B225
:102380000E943CB56CAB7DAB8EAB9FAB20E030E0E8
:1023900040E05FE30E9453AC2B013C01A501940196
:1023A000C501B4010E9453AC4B015C01A301920131
:1023B000C301B2010E9453AC9B01AC01C501B40141
:1023C0000E9482B20E943CB528962CAD3DAD4EAD28
:1023D0005FAD28970E9453AC4B015C01C701B60169
:1023E00090582CA93DA94EA95FA90E945FB3A501F1
:1023F00094010E9453AC6B017C012CAD3DAD4EAD00
:102400005FAD6CA57DA58EA59FA50E9483B220E03F
:1024100030E040E05FE30E9453AC9B01AC01C70198
:10242000B6010E9483B22CA53DA54EA55FA50E94D2
:1024300082B26B017C0128AD39AD4AAD5BAD68A9B4
:1024400079A98AA99BA90E9483B220E030E040E0EC
:102450005FE30E9453AC2B013C012CA93DA94EA97E
:102460005FA924966CAD7DAD8EAD9FAD24970E9483
:102470005FB3A50194010E9453AC9B01AC01C30161
:10248000B2010E9483B228A939A94AA95BA90E9476
:1024900082B214C089E40E944247882329F00E9436
:1024A000EE466B017C0103C0C12CD12C76018AE47D
:1024B0000E9442478823E9F00E94EE466CAF7DAF50
:1024C0008EAF9FAF20E030E0A901C701B6010E94A6
:1024D000EEAB81111BC020E030E0A9016CAD7DADF9
:1024E0008EAD9FAD0E94EEAB811110C0E0EFFDE11B
:1024F00093C320E030E0A901C701B6010E94EEAB12
:102500008823A1F31CAE1DAE1EAE1FAED701C601BF
:10251000B0588CA79DA7AEA7BFA72CAD3DAD4EADC3
:102520005FAD505828AB39AB4AAB5BAB9C01AD01FA
:10253000BC01CD010E9453AC4B015C0128A939A913
:102540004AA95BA9CA01B9010E9453AC9B01AC0125
:10255000C501B4010E9483B20E943CB564966CAF81
:102560007DAF8EAF9FAF649780914D1690914E16C0
:10257000A0914F16B091501688AF99AFAAAFBBAFDC
:10258000A7019601BC01CD010E9483B228966CAFD1
:102590007DAF8EAF9FAF2897209151163091521684
:1025A000409153165091541624962CAF3DAF4EAF28
:1025B0005FAF24972CAD3DAD4EAD5FAD24966CADB5
:1025C0007DAD8EAD9FAD24970E9483B268966CAFAF
:1025D0007DAF8EAF9FAF689780913D1690913E166C
:1025E000A0913F16B09140162C968CAF9DAFAEAF28
:1025F000BFAF2C9728962CAD3DAD4EAD5FAD289763
:10260000BC01CD010E9482B26B017C012091411678
:1026100030914216409143165091441660962CAF6B
:102620003DAF4EAF5FAF609768962CAD3DAD4EAD00
:102630005FAD689760966CAD7DAD8EAD9FAD6097D8
:102640000E9482B24B015C01809155169091561602
:10265000A0915716B09158166C968CAF9DAFAEAF47
:10266000BFAF6C979C01AD01609145167091461605
:1026700080914716909148160E9482B26CAB7DAB58
:102680008EAB9FABA70196016CA57DA58EA59FA5DE
:102690000E9453AC2B013C01A501940168A979A9C2
:1026A0008AA99BA90E9453AC9B01AC01C301B20152
:1026B0000E9483B22B013C01A50194016CA57DA56C
:1026C0008EA59FA50E9453AC4B015C01A70196010A
:1026D00068A979A98AA99BA90E9453AC9B01AC0166
:1026E000C501B4010E9482B2A30192010E94F6B218
:1026F0006B017C0120E030E0A9010E94EEAB87FF76
:102700000AC02BED3FE049EC50E4C701B6010E943E
:1027100083B26B017C0192E02916310451F42BED58
:102720003FE049EC50E4C701B6010E9482B26B0160
:102730007C0120E030E0A901C701B6010E94EEABA8
:10274000811126C02C962CAD3DAD4EAD5FAD2C97C2
:1027500068AD79AD8AAD9BAD0E94EEAB811118C01A
:1027600060962CAD3DAD4EAD5FAD609724966CADDF
:102770007DAD8EAD9FAD24970E94EEAB811108C058
:10278000FBEDCF2EFFE0DF2EF9ECEF2EF0E4FF2E75
:10279000A701960164966CAD7DAD8EAD9FAD64973B
:1027A0000E9453AC4B015C0120E030E0A9016CA910
:1027B0007DA98EA99FA90E94EEAB8823D9F0A5011F
:1027C0009401C501B4010E9453AC4B015C012CA9DA
:1027D0003DA94EA95FA9CA01B9010E9453AC9B0152
:1027E000AC01C501B4010E9483B20E943CB54B010B
:1027F0005C010DC020E030E0A901C501B4010E94D8
:10280000A9B487FF04C0B7FAB094B7F8B0942FE624
:1028100032E143E85AE3C501B4010E94EEAB87FF01
:1028200002C00C946725C501B4010E94F8B30E9450
:10283000CCB322967FAF6EAF2297DB01AB2B31F486
:10284000E1E0F0E02296FFAFEEAF229740905916FC
:1028500050905A1660905B1670905C1622962EADC2
:102860003FAD2297B90180E090E00E94F2AB4B01AE
:102870005C019B01AC01C701B6010E945FB368AF68
:1028800079AF8AAF9BAFA50194016CA97DA98EA9F0
:102890009FA90E945FB364966CAF7DAF8EAF9FAF70
:1028A0006497A30192016091491670914A16809134
:1028B0004B1690914C160E9482B2A50194010E9481
:1028C0005FB3A0966CAF7DAF8EAF9FAFA09728ADE2
:1028D00039AD4AAD5BADCA01B9010E9453AC20E0ED
:1028E00030E040E05FE30E9453AC9B01AC0160E04C
:1028F00070E080E89FE30E9482B22C966CAF7DAFBF
:102900008EAF9FAF2C976C968CAD9DADAEADBFAD2D
:102910006C9789879A87AB87BC874D865E866F8662
:10292000788A6091360270913702072E000C880B6E
:10293000990B0E94F4AB209130023091310240910A
:102940003202509133020E9453AC2AE037ED43E249
:102950005CE30E9453AC68A779A78AA79BA70E9453
:10296000F17B9B01AC0128533F4F4F4F5F4F609667
:102970002CAF3DAF4EAF5FAF60974CA45DA46EA48B
:102980007FA422242394312C39E13CAB22964EAD16
:102990005FAD22974215530509F41AC10E944D5AA2
:1029A0000E94F17BDC01CB0160962CAD3DAD4EADBC
:1029B0005FAD6097821B930BA40BB50BB7FD10C0E6
:1029C0000E94F17B9B01AC0128533F4F4F4F5F4F5B
:1029D00060962CAF3DAF4EAF5FAF60970E94444111
:1029E0003CA931503CAB332309F441C028A939A993
:1029F0004AA95BA92C966CAD7DAD8EAD9FAD2C9791
:102A00000E9453AC6B017C019201A30168AD79ADCA
:102A10008AAD9BAD0E9453ACA70196010E9483B280
:102A20007B018C019201A3012C966CAD7DAD8EAD26
:102A30009FAD2C970E9453AC4B015C0128A939A98A
:102A40004AA95BA968AD79AD8AAD9BAD0E9453AC34
:102A50009B01AC01C501B4010E9482B22B013C0173
:102A6000C701D80188AB99ABAAABBBAB4DC0B101D4
:102A700080E090E00E94F2AB28AD39AD4AAD5BAD8D
:102A80000E9453AC4B015C010E945CB36B017C0162
:102A9000C501B4010E9432B54B015C01A70196014A
:102AA0006CA57DA58EA59FA50E9453AC2B013C0172
:102AB0002CAD3DAD4EAD5FADC501B4010E9453AC30
:102AC000A30192010E9483B22B013C01A501940154
:102AD0006CA57DA58EA59FA50E9453AC4B015C0102
:102AE0002CAD3DAD4EAD5FADC701B6010E9453ACFC
:102AF0009B01AC01C501B4010E9482B268AB79AB05
:102B00008AAB9BAB49E14CAB9201A30128966CAD1B
:102B10007DAD8EAD9FAD28970E9483B269837A8385
:102B20008B839C8328A939A94AA95BA968966CADB7
:102B30007DAD8EAD9FAD68970E9483B26D837E831D
:102B40008F83988764962CAD3DAD4EAD5FAD649795
:102B500069857A858B859C850E9483B269877A878F
:102B60008B879C87A0962CAD3DAD4EAD5FADA097F9
:102B70006D857E858F8598890E9483B26D877E875B
:102B80008F87988B80910502882321F0CE010196D2
:102B90000E94D295E0906F0518A219A21AA21BA25A
:102BA000CE0180966C018E01085D1F4F9E01235F50
:102BB0003F4FAE01475F5F4FBE016B5F7F4F4F9747
:102BC0000E943A65882321F09FEF291A390ADECE48
:102BD000E0906F051CA21DA21EA21FA2DE0194960A
:102BE0006D018E01085D1F4F29E436E145E456E191
:102BF00061E476E18DE396E10E943A6580E1EDE3E0
:102C0000F6E1ADE4B6E101900D928A95E1F70C94FE
:102C100067250E941394F80184918F010F5F1F4F65
:102C20008111F7CFE3E2F4E084918F010F5F1F4F32
:102C3000882311F40C9467250E941394F801F4CFB3
:102C400080E50E944247882329F00E945D466B017F
:102C50007C0103C0C12CD12C760183E50E94424740
:102C6000882361F00E949D4620E030E04AE754E46A
:102C70000E9453AC0E94CCB36B017C010E94F072A5
:102C80000E94F17BC60ED71EE81EF91E0E94F17B42
:102C9000DC01CB018C199D09AE09BF09B7FD02C04B
:102CA0000C9467250E944441F1CF81E090E00E949E
:102CB00033460C94672580E090E00E9433460C94E4
:102CC00067258091C30481110AC080915F1690919D
:102CD0006016039721F48EE790E00E94D0738091F4
:102CE000AE048770873011F00C9471258FE40E9438
:102CF0004247882319F00E948E4603C08FE40E9449
:102D0000F94681110C9467250C9471251092A30447
:102D10000C9467259093A3040C946725812F0E943F
:102D2000D046762EE72EF82E092F133059F0F501F4
:102D300020813181428153810E9482B2762EE72E1A
:102D4000F82E092FD4012D913D914D915C91672D65
:102D50007E2D8F2D902F0E9482B21B012C012DEB16
:102D600037E346E855EB0E94A9B487FD20C02DEB60
:102D700037E346E855E3C201B1010E94EEAB1816F5
:102D8000B4F01F5FB4E0CB0ED11CE4E08E0E911CBA
:102D9000F4E0AF0EB11C143071F1ACA5BDA58D915E
:102DA000BDA7ACA70E944247882359F3B7CF133081
:102DB00079F4872D9E2DAF2DB02F809359169093C7
:102DC0005A16A0935B16B0935C1666246394D9CF11
:102DD000A2019101F60160817181828193810E943B
:102DE00083B2D6016D937D938D939C931397812F1E
:102DF0000E94ED56C6CF662029F069E576E183E0B2
:102E00000E94099B0E947D530C9467250E94889E16
:102E10000C9467258091311B9091321B8537910569
:102E200011F40C9467250CF0BAC08C34910509F4A8
:102E3000DCC40CF050C08931910509F4D7C21CF5EF
:102E40008431910509F4C0C17CF48131910509F404
:102E500043C22CF4029708F4BAC10C941E25429781
:102E600009F449C60C941E258631910509F47AC2ED
:102E70000CF474C28731910509F47AC2489709F4B9
:102E80008FC20C941E258E31910509F46DC384F414
:102E90008B31910509F4C6C20CF4B6C28C31910590
:102EA00009F458C34D9711F40C9467250C941E2512
:102EB0008032910509F472C30CF4AFC38A329105D4
:102EC00009F45EC48B34910511F00C941E250E9408
:102ED0003D5D0C9467258A36910509F4B9C5B4F5B2
:102EE0008435910509F407C6E4F48135910509F4A8
:102EF000DFC54CF48D34910511F00C941E250E9411
:102F0000745D0C9467258235910509F4F1C583350C
:102F1000910511F00C941E2581E08093A2040C947D
:102F200067258C35910509F402C634F48535910581
:102F300009F4E4C50C941E258836910509F459C49A
:102F40008936910509F411C50C941E258F3691051B
:102F500009F48BC48CF48C36910511F40C9467251C
:102F60000CF494C58D36910509F441C58E36910552
:102F700009F468C40C941E258137910509F4C8C46E
:102F800014F40C9467258237910509F47AC68337C7
:102F9000910511F00C941E25ECEEF5E0AFC68F32D2
:102FA00021E0920711F40C9420240CF072C08B3CA9
:102FB000910509F4BEC7C4F58C38910509F41BC509
:102FC000ACF48737910509F440C70CF4F2C6883792
:102FD000910509F43DC78937910511F00C941E2520
:102FE0001092A3061092A2060C9467258E3B9105C1
:102FF00009F417C534F48B39910509F4D1C40C9444
:103000001E25883C910509F429C7893C910511F0DA
:103010000C941E25A5E4CA2EA2E0DA2EB6EBEB2E08
:10302000B6E1FB2E10E06AC78C3D910511F40C94BB
:103030008722ACF48D3C910511F40C942E200CF4F5
:1030400098C78E3C910511F40C949920833D91050D
:1030500011F00C941E25EEE3F0E20C94B421823EB4
:10306000910511F40C9403233CF48D3D910511F46A
:103070000C9494220C941E258D3241E0940711F497
:103080000C942C238E32914011F40C94CC230C948C
:103090001E258B38A3E09A0711F40C946725D4F50C
:1030A000843FE1E09E0711F40C943C24ECF4803959
:1030B00021E0920711F40C9439244CF483369140AA
:1030C00011F00C941E25E0EFFDE10C9426248A39C2
:1030D00051E0950711F40C9467258C3A914011F456
:1030E0000C94BC200C941E25863FB1E09B0711F484
:1030F0000C94422414F40C943F24873FF1E09F0782
:1031000011F40C944524883F914011F40C945124FF
:103110000C941E25833D37E0930711F40C949E24F4
:1031200064F5873E53E0950711F40C94752494F4EC
:10313000803A934011F00C941E2580912F1B9091A2
:10314000301B21E02093250D40E060E00E94B27723
:103150000C946725803DE7E09E0711F40C948824C9
:10316000813D974011F00C941E250E94D7478EE2B6
:1031700090E00E94D0730C946725863D27E092076B
:1031800011F40C94A6248CF4843D47E0940711F4C8
:103190000C94A124853D974011F00C941E258CE0E1
:1031A0009EEF0E94769D0C946725873DA7E09A07C5
:1031B00011F40C94B324883D974011F00C941E2513
:1031C00000EA1FE00C940425E8E4F4E089C00091D3
:1031D0002F1B1091301B80E50E944247882361F02D
:1031E0000E945D466B017C01BB24B394672B682B66
:1031F000692B31F4B12C04C0B12CC12CD12C760137
:1032000083E50E944247882311F40C946B260E94A8
:103210009D4620E030E04AE754E40E9453AC0E940F
:10322000CCB36B017C01B1100BC0672B682B692BF1
:1032300039F40115110521F0F8018081811102C0D6
:10324000B12C02C0BB24B3940E94F072BB20C1F029
:10325000EEE3F0E284915F012FEFA21AB20A882315
:1032600021F00E941394F501F5CFD8018D918D01C5
:10327000882319F00E941394F8CF8AE00E941394D7
:1032800083E08093700581E080938D15C114D10493
:10329000E104F104B1F00E94F17BC60ED71EE81ED6
:1032A000F91E0E94F17BDC01CB018C199D09AE094E
:1032B000BF09B7FF0DC080918D1581110C94702648
:1032C00007C080918D15882319F00E944441F9CFE1
:1032D00010928D150C9467250E941F440C9467254D
:1032E00084918F010F5F1F4F882321F00E94139458
:1032F000F801F6CF1092C20F86E59DE00E94173DBF
:103300008BE1E6E5FDE0DE01159601900D928A95D0
:10331000E1F78091540D9091550D9C838B8389EE3C
:1033200092E09A83898340E050E0BE016F5F7F4F57
:1033300080E090E00E94808ACE0101960E94223DAA
:10334000E9E3F4E084918F010F5F1F4F882311F4AC
:103350000C9467250E941394F801F4CF0E94BB746B
:103360000C9467251092260D1092270D0C9467255A
:103370000E94C579E0912F1BF091301B808188233A
:1033800029F0803209F410823196F8CF40E061E0F4
:1033900080912F1B9091301B0E94B2770C9467256F
:1033A00083E50E944247882381F00E946D46AB016D
:1033B000BC014093BE0F5093BF0F6093C00F70933A
:1033C000C10F8EEE9EE00E94688F8091270D8823AA
:1033D00019F081E08093260D84E50E944247811117
:1033E0000C9467250E943D5D0C9467251092260D74
:1033F0000E945F5D89E594E09093AD048093AC04F6
:103400000E94D0450C9467258091270D882311F4E4
:103410000C94672583E50E94424781110C94742621
:103420000C94672583E40E94F946882309F450C070
:10343000ECE8F4E084918F010F5F1F4F882321F0A7
:103440000E941394F801F6CF8091F10E811103C010
:10345000EFE5F4E012C0BE016F5F7F4F8EEE9EE09D
:103460000E94F3818E010F5F1F4FF80181918F0140
:10347000882349F10E941394F8CF84918F010F5F44
:103480001F4F882301F10E941394F801F6CF24EE18
:10349000C22E24E0D22EE12CF12C20E080917B087A
:1034A00090E00E2C02C0959587950A94E2F780FD76
:1034B0000CC2EFEFEE1AFE0AF2E0CF0ED11C35E09F
:1034C000E316F10459F78AE00E9413940C946725DF
:1034D0008091270D882339F08091260D882319F0DB
:1034E000E9E6F4E003C0EBE7F4E028C084918F0143
:1034F0000F5F1F4F882321F00E941394F801F6CF2D
:103500006091BE0F7091BF0F8091C00F9091C10F5D
:103510004AE00E941A948FE20E9413946091BA0FBD
:103520007091BB0F8091BC0F9091BD0F4AE00E943B
:103530001A948AE00E9413940C94672584918F0159
:103540000F5F1F4F882311F40C9467250E9413947A
:10355000F801F4CF40E060E080912F1B9091301B88
:103560000E94B2770C9467258091270D882311F46F
:103570000C9467258EEE9EE00E94368F8EEE9EE0C4
:103580000E94CE811092250D1092240D80912F1B48
:103590009091301B0E942C790C9467258091260D08
:1035A00081110E94F0728091270D882311F40C94F0
:1035B000672580E50E944247882319F00E948E46C5
:1035C00003C080E50E94F946182F482F61E08091E2
:1035D0002F1B9091301B0E94B27783E50E944247D7
:1035E000882381F00E946D46AB01BC014093BE0F61
:1035F0005093BF0F6093C00F7093C10F8EEE9EE08B
:103600000E94688F8091270D882319F081E08093B4
:10361000260D11110C946725E5CE0E94EE5C7B010E
:103620008C0120E831E541E050E00E9447B2C90139
:103630006DE671E00E947AB64B015C01C801B701EA
:1036400020E13EE040E050E00E9447B2CA01B901EB
:1036500028E130E040E050E00E9447B2762E672E2D
:10366000C62ED72E3CE3232E312C412C512CC801E1
:10367000B701A20191010E9447B2F62EE72ECA01BE
:10368000B901A20191010E9447B2CB018E010F5FE7
:103690001F4F81149104D1F0EF92FF927F936F93AB
:1036A0006F927F92BF92AF929F928F9283EC94E041
:1036B0009F938F931F930F930E94C0AB0FB6F89404
:1036C000DEBF0FBECDBFEEE3F0E245C0A114B104F2
:1036D00089F0EF92FF927F936F936F927F92BF92E8
:1036E000AF9283EB94E09F938F931F930F930E946D
:1036F000C0ABE4CFCD2879F0EF92FF927F936F9328
:103700006F927F9287EA94E09F938F931F930F931A
:103710000E94C0ABD3CF892B69F0EF92FF927F93C9
:103720006F938FE994E09F938F931F930F930E9461
:10373000C0ABC4CFEF92FF928BE994E09F938F933D
:103740001F930F930E94C0AB0F900F900F900F909C
:103750000F900F90B8CF84917F01BFEFEB1AFB0A57
:10376000882321F00E941394F701F5CFB80187ED6B
:1037700094E00E94C68C8AE00E9413940C94672502
:1037800083E50E944247882311F40C9467250E9428
:103790007D46E82E80E50E944247882339F00E944A
:1037A0007D46182F87FF03C00C9467251DE089E430
:1037B0000E944247882351F00E948E4681110C944A
:1037C0006128EEE3F7E08BE697E00AC089E40E9407
:1037D000F946F4CF31968E179F0711F40C946128A7
:1037E00024911213F7CF0C9436280E945F5D0C943D
:1037F000672588E690E00E942D5781110C9467257B
:1038000080917B0883FF02C00C94672583E50E94AA
:103810004247882399F00E949D460E94C7B3CB017E
:103820000E9489800E949D4620E030E044EB52E4F3
:103830000E94EEAB181614F00E94745D0E947E9AEE
:103840000C9467258EE40E944247882311F40C945F
:1038500067250E946D466093830870938408809367
:103860008508909386080C94672583E50E94F946A5
:10387000882359F083E50E944247882319F00E946B
:103880007D4601C080E080937B08EEE3F0E2849106
:103890008F010F5F1F4F811103C0E2EFF4E004C0FE
:1038A0000E941394F801F3CF84918F010F5F1F4F93
:1038B000882321F00E941394F801F6CF80917B08B1
:1038C0008111E5CDEEEEF4E018C0BB24B394B20E46
:1038D000222319F08CE20E941394F60185919491B1
:1038E000FC0184918F010F5F1F4F882321F00E94FC
:1038F0001394F801F6CF2B2DDCCD84918F010F5F4F
:103900001F4F882309F4DFCD0E941394F801F5CFEF
:1039100083E50E944247811103C0EEE3F0E20DC04F
:103920000E947D468D3320F4809306020C94672517
:103930008CE3809306020C94672584918F010F5FBE
:103940001F4F882321F00E941394F801F6CF409175
:10395000060250E060E070E089EF94E00E94798C0C
:103960008AE00E9413940C94672589E690E00E94F7
:103970002D57811111C0E0E0F5E084918F010F5FB8
:103980001F4F882321F00E941394F801F6CF0E9464
:10399000DB7C8AE00E941394109270050C947628C8
:1039A00083E50E944247882311F40C9467250E9406
:1039B0007D46182F8D3308F01CE310937D050E947F
:1039C000F17B6B017C01212F30E0A8EEB3E00E9477
:1039D00073B2C60ED71EE81EF91EC0927905D092AA
:1039E0007A05E0927B05F0927C050C9467250E9495
:1039F000CF570C94672580917B0883FF02C00C94FD
:103A0000672583E50E944247882311F40C946725BB
:103A10000E949D460E94C7B3CB010E9440480C946F
:103A2000672580917B0883FF02C00C94672583E59E
:103A30000E94424725968FAF259781110C948526C9
:103A400082E50E94424781110C9485260C946725DB
:103A500080E50E944247811106C083E50E944247EB
:103A6000882361F006C00E947D4681110C94672571
:103A7000F4CF0E946D466F3F710510F06FEF70E05C
:103A800070933416609333160C94672580E50E947A
:103A90004247811106C010923416109233160C94CE
:103AA00067250E946D46672B11F00C946725F3CFB4
:103AB0000E9492800E942D73109234161092331639
:103AC00000E010E062E370E080E090E00E94897B1B
:103AD0000E944D5A0F5F1F4F0331110599F762E3A2
:103AE00070E080E090E00E94897B0E944D5AEFC711
:103AF0001092A204ECC70E944754E9C783E50E94D4
:103B0000F946882309F4E3C70E949D4620E030E08F
:103B10004AE754E40E9453AC0E94CCB3609375050D
:103B2000709376058093770590937805D0C715E458
:103B3000C12E12E0D12E06EDE02E06E1F02E10E0AF
:103B4000F60181916F010E94F946882309F48FC024
:103B5000133009F07AC00E949D4620913908222333
:103B600049F020918E0430918F044091900450913F
:103B7000910408C020918A0430918B0440918C04F8
:103B800050918D040E945FB34B015C0120E030E056
:103B900040EA51E40E94EEAB87FF4EC0A5019401BC
:103BA0006091E2167091E3168091E4169091E5160B
:103BB0000E945FB32B013C019B01AC0160914E0858
:103BC00070914F0880915008909151080E9453AC19
:103BD00060934E0870934F0880935008909351085B
:103BE000A301920160916A0870916B0880916C0842
:103BF00090916D080E9453AC60936A0870936B08B3
:103C000080936C0890936D086091B2167091B31612
:103C10008091B4169091B5160E94F2ABA301920167
:103C20000E9453AC0E94CCB36093B2167093B3164B
:103C30008093B4169093B5168092E2169092E31694
:103C4000A092E416B092E51612C00E949D46209103
:103C50008A0430918B0440918C0450918D040E9411
:103C60005FB3D7016D937D938D939C9313971F5FE3
:103C7000B4E0EB0EF11C143009F062CF0E94359CC9
:103C800026C70E94F07283E50E944247882309F408
:103C9000B9C80E946D466230710509F0B3C80E9430
:103CA0003D458BE50E941394609163057091640516
:103CB000809165059091660542E00E949F94409135
:103CC0006705509168056091690570916A058AE001
:103CD00095E00E94948C40916B0550916C05609129
:103CE0006D0570916E0587E095E00E94948C8DE5DE
:103CF0000E9413948AE00E941394E9C684918F0174
:103D00000F5F1F4F882321F00E941394F801F6CF14
:103D100060E08CED95E00E94465361E085ED95E012
:103D20000E94465361E08AEC95E00E94465361E0B0
:103D30008AEB95E00E94465360E081EB95E00E949B
:103D4000465361E087EA95E00E94465360E08DE9C2
:103D500095E00E94465360E085E995E00E94465355
:103D600060E087E895E00E94465360E089E795E0CF
:103D70000E94465360E08AE695E00E94465360E068
:103D80008CE595E00E94465360E086E495E00E9451
:103D9000465361E085E395E00E94465360E080E28F
:103DA00095E00E94465361E08DE095E00E94465305
:103DB0008EC600912F1B1091301B83E0D12C40E068
:103DC0008150E1F0F8019081292F2B7F2134C1F738
:103DD00021812133A9F7913421F0953421F441E078
:103DE00002C0DD24D39498012E5F3F4F89012F5FDD
:103DF0003F4FD8019C919032C9F3E2CF442369F040
:103E0000EEE3F0E284917F01BFEFEB1AFB0A882317
:103E100021F00E941394F701F5CFDD2069F0E2EB69
:103E2000F6E084917F012FEFE21AF20A882321F055
:103E30000E941394F701F5CFD8018D918D0188234D
:103E400009F441CB0E941394F7CF0E94AB483FC6C0
:103E500081E08093A3068093A20639C688EC90E0A7
:103E60000E942D57811133C684E40E94F9468823AD
:103E700009F441C00E94EE466B017C0111E020E094
:103E800030E0A9010E94EEAB811101C010E0109357
:103E9000390820E030E0A901C701B6010E94EEAB6D
:103EA000882349F10E94EE46E091C80AB4E0EB9FF6
:103EB000F0011124E25CF74F608371838283938366
:103EC00020E030E0A90160913E0870913F088091A8
:103ED0004008909141080E94EEAB81110CC080E037
:103EE00090E0A0EEBFE380933E0890933F08A0933C
:103EF0004008B09341080E946B73E9C5F6018191B7
:103F00006F010E94F946882359F0812F0E94D04604
:103F10000E94CCB3D7016D937D938D939C9313979F
:103F20001F5FB4E0EB0EF11C143041F70E94AE9A13
:103F3000CEC5E5E4CE2EE2E0DE2EFEE5EF2EF8E083
:103F4000FF2E10E0F60181916F010E94F94688234F
:103F500049F0812F0E94D046D7016D937D938D93B8
:103F60009C9313971F5FB4E0EB0EF11C143051F7D4
:103F7000AEC583E50E9442478823A1F00E94EE4629
:103F80006093560870935708809358089093590887
:103F90006093520870935308809354089093550887
:103FA00010E001C011E080E50E944247882359F0EB
:103FB0000E94EE4660935608709357088093580805
:103FC0009093590810E082E50E944247882359F0F7
:103FD0000E94EE4660935A0870935B0880935C08D9
:103FE00090935D0810E084E50E944247882359F0D1
:103FF0000E94EE46609352087093530880935408D1
:104000009093550864C5112309F461C54091560881
:104010005091570860915808709159088CEB96E0C0
:104020000E94948C40915A0850915B0860915C0802
:1040300070915D0889EB96E00E94948C4091520843
:1040400050915308609154087091550886EB96E0A2
:104050000E94948C8AE00E94139439C581E50E94E5
:10406000F946882351F00E945D4660936E08709374
:104070006F08809370089093710883E50E94F94659
:10408000882351F00E94EE4660937608709377087B
:10409000809378089093790884E50E94F9468823F4
:1040A00051F00E94EE4660937208709373088093FB
:1040B00074089093750888E50E94F946882351F0AA
:1040C0000E94EE4660934208709343088093440830
:1040D0009093450889E50E94F946882351F00E9493
:1040E000EE46609346087093470880934808909383
:1040F00049088AE50E94F946882351F00E94EE465D
:1041000060934A0870934B0880934C0890934D0835
:1041100085E40E94F946882309F4D9C40E94EE463A
:1041200060934E0870934F08809350089093510805
:10413000CEC465E4C62E62E0D62E75EAE72E76E0A0
:10414000F72E10E0F60181916F010E94F946882355
:1041500059F00E94EE46D7016D937D938D939C9309
:104160001397812F0E94ED561F5FB4E0EB0EF11CF8
:10417000133041F70C94021780918A05E82FE27002
:10418000EE2EF82FF470FF2E282F2170D22E80FFF4
:1041900004C0EE2311F0F11152C0EEE3F0E284917D
:1041A0008F010F5F1F4F811103C0EAEDF6E004C0DD
:1041B0000E941394F801F3CF84918F010F5F1F4F7A
:1041C000882321F00E941394F801F6CFD1100CC07F
:1041D000E8EDF6E084918F010F5F1F4F882321F0F7
:1041E0000E941394F801F6CFE1100CC0E6EDF6E062
:1041F00084918F010F5F1F4F882321F00E94139439
:10420000F801F6CFF11003C0E4EDF6E003C0ECECEA
:10421000F6E00AC084918F010F5F1F4F8823B9F326
:104220000E941394F801F6CF84918F010F5F1F4F06
:10423000882309F44CC40E941394F801F5CF0CEFC5
:104240001AE04DE456E15DA74CA7CE0101965C0152
:1042500055E5852E5BE0952E1C01F8016591759161
:1042600085919491ACA5BDA5CD90DD90ED90FD908C
:10427000BDA7ACA7A70196010E9482B22B013C0109
:10428000F101608371838283938320E030E040EA10
:1042900051EC0E94A9B487FD0AC020E030E040EA5A
:1042A00051E4C301B2010E94EEAB18162CF4F401E4
:1042B000849118160CF4CFC6D101CD90DD90ED900D
:1042C000FD901D0120E030E040EA51ECC701B6014D
:1042D0000E94A9B487FD0AC020E030E040EA51E422
:1042E000C701B6010E94EEAB1816D4F4E0EFFDE171
:1042F00084918F010F5F1F4F811103C0E0EEF6E044
:1043000004C00E941394F801F3CF84918F010F5FD2
:104310001F4F882309F4DBC30E941394F801F5CFE3
:104320000C5F1F4FBFEF8B1A9B0AEBE008301E0794
:1043300009F093CF45EAE42E46E0F42E10E0F501B3
:1043400081919191A191B1915F01F7018193919335
:10435000A193B1937F01812F0E94ED561F5F13300F
:1043600071F70E947D53B3C384918F010F5F1F4F7C
:10437000882321F00E941394F801F6CF83E50E9470
:10438000F946882321F00E948E4680930502E6E2DA
:10439000F7E084918F010F5F1F4F882321F00E9467
:1043A0001394F801F6CF80910502882319F0EEE10D
:1043B000F7E002C0E2E2F7E084918F010F5F1F4F48
:1043C000811103C0E6E1F7E004C00E941394F801F4
:1043D000F3CF84918F010F5F1F4F882321F00E943C
:1043E0001394F801F6CF409092045090930460909B
:1043F000940470909504209181153091821540911C
:10440000831550918415C301B2010E9483B2AB01A0
:10441000BC0184E197E00E94948C80909604909077
:104420009704A0909804B09099042091851530913C
:1044300086154091871550918815C501B4010E94D9
:1044400083B2AB01BC0181E197E00E94948CC090E3
:104450009A04D0909B04E0909C04F0909D042091DD
:10446000891530918A1540918B1550918C15C70193
:10447000B6010E9483B2AB01BC018EE097E00E94BE
:10448000948CE6E0F7E084918F010F5F1F4F882343
:1044900021F00E941394F801F6CF2091240230916C
:1044A00025024091260250912702C301B2010E94C9
:1044B00083B2AB01BC0184E097E00E94948C209110
:1044C00028023091290240912A0250912B02C50105
:1044D000B4010E9483B2AB01BC0181E097E00E946D
:1044E000948C20912C0230912D0240912E025091FB
:1044F0002F02C701B6010E9483B2AB01BC018EEF4F
:1045000096E00E94948C8AE00E941394E0C283E5B6
:104510000E944247882309F4DAC20E946D467093D4
:10452000370260933602D3C28DED90E00E942D5782
:104530008111CDC283E50E944247811103C0EEE3A1
:10454000F0E23BC00091C80A10E00E946D46000FE7
:10455000111FF801EC5CFD4F718360838091C80AE4
:1045600090E08C01000F111F000F111F9801255EB4
:104570003D4F7901880F991FFC01EC5CFD4F608174
:104580007181072E000C880B990B0E94F4AB2AE076
:1045900037ED43E25CE30E9453ACF801E65CF74F71
:1045A00020813181428153810E9453ACD7016D93A8
:1045B0007D938D939C9313978AC284918F010F5F93
:1045C0001F4F882321F00E941394F801F6CF85E451
:1045D0000E9413948091C80A805D0E941394E09118
:1045E000C80AF0E0EE0FFF1FEC5CFD4F60817181A7
:1045F00086E397E00E94AF8C85E20E9413948AE0E4
:104600000E94139464C280E50E94F946882309F44D
:104610005EC20E946D466B017C0183E50E944247A9
:10462000882321F00E946D468B0102C00FEF1FEF1F
:10463000C8010196039708F04AC2D7FC48C28C2DE6
:10464000EEE3F7E09491891709F410C53196B7E0CD
:10465000EB36FB07B9F70DC585E40E94424781118F
:1046600010C080E50E94F946882391F00E949D4683
:104670006093230670932406809325069093260664
:1046800007C00E947D46882361F3E0EFFDE171C021
:1046900089E40E94F946882381F00E949D462CEA15
:1046A00035EC47E25EE30E9453AC60931F067093C3
:1046B0002006809321069093220684E40E94F94606
:1046C000882381F00E949D462CEA35EC47E25EE3A8
:1046D0000E945FB360932706709328068093290693
:1046E00090932A06EEE3F0E284918F010F5F1F4F53
:1046F000882321F00E941394F801F6CF40912306FD
:1047000050912406609125067091260683E797E074
:104710000E94948C2CEA35EC47E25EE360911F0620
:104720007091200680912106909122060E945FB32D
:10473000AB01BC018FE697E00E94948C2CEA35EC2B
:1047400047E25EE360912706709128068091290672
:1047500090912A060E9453ACAB01BC018BE697E016
:104760000E94948C8AE00E941394B1C10E94139419
:10477000F80184918F010F5F1F4F8111F7CFE7E799
:10478000F7E084918F010F5F1F4F882309F49FC1C9
:104790000E941394F801F5CF83E50E94F946182F83
:1047A000882371F00E949D460E94C7B37093200237
:1047B00060931F0221E0672B09F020E020937A0824
:1047C00080E50E94F946882359F020911F0230911C
:1047D0002002232B11F00E948E4680937A0877C125
:1047E000111175C1EEE3F0E284918F010F5F1F4F4D
:1047F000882321F00E941394F801F6CF80917A0863
:10480000882319F06DEF72E002C060E073E08EE97A
:1048100097E00E94C68C60911F02709120028DE883
:1048200097E00E94AF8CE9E8F7E084918F010F5F79
:104830001F4F882309F44BC10E941394F801F5CF50
:104840000E940F4F44C10E941394F80184918F017C
:104850000F5F1F4F8111F7CFE1EBF7E084918F01DC
:104860000F5F1F4F882309F432C10E941394F8018F
:10487000F5CF0E94F0722BC10E94B23228C10E9473
:10488000A14E25C10E94B24D22C183E50E94F94686
:10489000882321F00E948E4691E089270E94DD48FE
:1048A00016C181E080939E040E94813710929E047D
:1048B000882309F40CC1EEE3F0E284918F010F5FCD
:1048C0001F4F811103C0E0ECF7E004C00E94139475
:1048D000F801F3CF84918F010F5F1F4F882309F4F4
:1048E000F6C00E941394F801F5CF81E08093140282
:1048F00083E50E944247882339F00E948E46811149
:10490000E6C00E947645E3C083E50E94F946F7CFF2
:104910001092A3040E9447541092C3048091AA04E9
:10492000823029F081E090E00E94D07302C01092A2
:10493000AA041092BA041092B904C9C00E94D747C1
:10494000C6C084EF91E00E94769DC1C00E94D74707
:1049500084E690E00E94D0738BE090E09093601624
:1049600080935F16B4C08AE50E94F946882319F146
:104970000E94EE4660935516709356168093571614
:104980009093581682E00E94884710925516109214
:1049900056161092571610925816109245161092ED
:1049A0004616109247161092481665E476E182E0AA
:1049B0000E94099B8CC085E40E94F946882309F473
:1049C00086C00E94EE466093591670935A168093E3
:1049D0005B1690935C1683E00E94884710925916EC
:1049E00010925A1610925B1610925C16109249168D
:1049F00010924A1610924B1610924C1669E476E10A
:104A000083E00E94099B63C060E0C8010E9412B26B
:104A1000C8010E9405B2682F70E080E090E00E941B
:104A200085948DE00E9413948AE00E9413940F5F96
:104A30001F4F043AEFE01E0739F749C00E94889ED5
:104A400046C0F090311B0E94F072FF2029F1EEE386
:104A5000F0E284918F010F5F1F4F882321F00E94A5
:104A60001394F801F6CF84E50E9413946F2D70E043
:104A700080E090E04AE00E941A9480E20E94139441
:104A8000EDEDF7E084918F010F5F1F4F8823F9F060
:104A90000E941394F801F6CF10926F05EEE3F0E256
:104AA00084918F010F5F1F4F882321F00E94139480
:104AB000F801F6CF60916F0570E08BEC97E00E94F3
:104AC000AF8C8AE00E94139402C00E94889E1092CC
:104AD00070050E9459450AC30E94C0540E94284490
:104AE000F6CF0E94F0728091300290913102A09135
:104AF0003202B09133028093A6049093A704A0934E
:104B0000A804B093A9048091360290913702909343
:104B1000A5048093A40484E690E0909337028093E8
:104B2000360211E01093A30688E50E94F946B82EDC
:104B300089E50E94F946082F8AE50E94F946A82EC9
:104B4000B11004C0011104C01A2505C0011102C032
:104B500010E001C01A2D80E1EDE4F6E1ADE3B6E12D
:104B600001900D928A95E1F782E50E9442478823E1
:104B700069F00E94EE466B017C0120E030E0A90163
:104B80000E94EEAB882309F450C006C0C12CD12C82
:104B900070EAE72E70E4F72E111105C0B11003C0C2
:104BA000002309F453C0409055165090561660905B
:104BB00057167090581620E030E0A901C301B201E9
:104BC0000E94A9B487FD1AC0C0924516D09246161D
:104BD000E0924716F0924816A7019601C301B20170
:104BE0000E94EEAB87FF21C019821A821B821C82B1
:104BF000BE016F5F7F4F85E496E115C018A219A230
:104C00001AA21BA220E030E040EA50E4C301B20146
:104C10000E9483B269837A838B839C83BE01605E2A
:104C20007F4FCE0101960E94699E111105C0B110FF
:104C300003C0011106C00AC080E00E94DF3F1123BB
:104C4000C1F381E00E94DF3F111102C0AA2019F0D8
:104C500082E00E94DF3F0E9429468091A206809355
:104C6000A3068091A6049091A704A091A804B091F6
:104C7000A9048093300290933102A0933202B09342
:104C800033028091A4049091A504909337028093FD
:104C900036020E947D538091C304811118CF809108
:104CA0005F1690916016039709F011CF8091C504AB
:104CB000811105C083E090E00E94D07308CF81305D
:104CC00029F484E290E00E94D07301CF85E290E065
:104CD0000E94D073FCCEB1100C9420190C941919B9
:104CE0000E9444410C9451190E946D46AB01BC01D5
:104CF0004093BE0F5093BF0F6093C00F7093C10FCE
:104D00008EEE9EE00E94688FE2CE0E949D460E9439
:104D1000C7B3CB010E9440488091C304882369F146
:104D2000FFD160E070E088E190E10E94568A40E0A7
:104D300050E065E070E08DE290E00E94329EF0D19C
:104D400062E370E080E090E00E94897B40E050E008
:104D500065E076E08FE290E00E94329EE1D162E36E
:104D600070E080E090E00E94897B40E050E065E0E8
:104D700072E08DE290E00E94329E0E949D4620E00B
:104D800030E040EA50E40E94A9B4181614F40E94DE
:104D90003D5D81E08093000280916F058093C80A99
:104DA00018AE19AE1AAE1BAE68961CAE1DAE1EAE86
:104DB0001FAE68971CAE29961FAE29974CE32D961F
:104DC0004FAF2D975CE169965FAF699786E4619676
:104DD0008FAF6197C12CD12C80E8E82E9FEBF92E84
:104DE000412C512C32016091B4047091B504072E0E
:104DF000000C880B990B0E94F4AB162F072F8CA781
:104E000098AB9601A7010E94EEAB882301F1209197
:104E10003516309136164091371650913816259632
:104E20009FAD2597612F702F8CA5911108C098A96F
:104E30000E94EEAB881F8827881F8CAF0EC098A9F0
:104E40000E94EEAB87FF08C08091000240CE1C2D6F
:104E50000D2DECA6F8AA01C01CAE0E94F17B6B01DF
:104E60007C01DC01CB0168962CAD3DAD4EAD5FAD54
:104E70006897821B930BA40BB50BB7FD3DC0D70100
:104E8000C60188519C4FAF4FBF4F68968CAF9DAF06
:104E9000AEAFBFAF68970E94DB7CE3E0F5E08491A2
:104EA0005F019FEFA91AB90A882321F00E94139489
:104EB000F501F5CF4114510461047104B9F0D30137
:104EC000C201805F984DAF4FBF4FBC01CD016C193F
:104ED0007D098E099F0928EE33E040E050E00E94F2
:104EE00047B2CA01B9010E94859403C08FE30E94B2
:104EF00013948AE00E9413940E9444410E94F17B23
:104F00006093710570937205809373059093740597
:104F10002090351630903616A0913716ACABB09174
:104F200038162196BFAF21979101AD01612F702FE7
:104F30008CA598A90E9482B24B015C0120E030E070
:104F4000A9010E94A9B487FF04C0B7FAB094B7F8CA
:104F5000B094411451046104710459F420E030E02C
:104F600040E85FE3C501B4010E94EEAB87FF0DC0CE
:104F70000AC020E030E040E450E4C501B4010E94E2
:104F8000A9B4181614F426013701ECADEE2309F488
:104F900046C028AD39AD4AAD5BAD2115310541059F
:104FA000510541F0D701C601821B930BA40BB50B31
:104FB000B7FD35C091014CA921965FAD2197299687
:104FC0006FAD29972D967FAD2D9769968FAD699717
:104FD00061969FAD61970E9482B220E030E040EC84
:104FE0005FE30E94EEAB87FD2FCFD701C601805A49
:104FF0009541AF4FBF4F88AF99AFAAAFBBAF2996CE
:105000002FAE29972D963FAE2D979CA969969FAFFD
:1050100069972196AFAD21976196AFAF6197809167
:105020000002882309F410CF411451046104710473
:1050300029F4C12ED02EECA4F8A8D5CEB0E1CB1A1D
:10504000B7E2DB0AE108F108C418D508E608F7085A
:10505000F7FEFACEEECFF7FAF094F7F8F094D1011C
:10506000CD92DD92ED92FC92139726C90E94A55431
:105070002ECD0E94F072BC2C60E08C2D0E94867AAE
:105080000F3FBFEF1B0759F48C2D0E94116531E0D3
:1050900020E0892B09F030E0032F122F05C00130EA
:1050A000110561F401E010E08B2D0E94116580175D
:1050B000910709F40CCD0E944441F6CF00E010E0C6
:1050C000F3CF61E0812F0E94867A6E2D812F0E949E
:1050D000587AF12CB701812F0E94C27A193009F059
:1050E000F6CCF0923416E0923316F1CCC15ADF4F71
:1050F0000FB6F894DEBF0FBECDBFDF91CF911F91E9
:105100000F91FF90EF90DF90CF90BF90AF909F9066
:105110008F907F906F905F904F903F902F90089569
:10512000AF92BF92CF92DF92EF92FF920F931F93B5
:10513000CF93DF93CDB7DEB76E970FB6F894DEBF8F
:105140000FBECDBF85E2E7E8F0E1DF011D928A9551
:10515000E9F780916005909161058597DCF52FB79F
:10516000F89480914A0590914B052FBF891B8F774A
:1051700089F140916005509161059FB7F894809145
:105180004B0520914A05821751F0E82FF0E0E653D5
:10519000FB4F20818F5F8F7780934B0502C02FEFED
:1051A0003FEF9FBFFA01E957FF4E208380918710A0
:1051B0008A3579F665E070E080E090E00E94897BB6
:1051C00080916005909161050196909361058093AF
:1051D0006005BFCF80916005909161051816190692
:1051E00014F00C94BB31019711F40C94B0319091F0
:1051F0003A108091871098130C94B03190913B1025
:105200008091881098130C94B03180918A1080930B
:105210003C10833811F00C94B03180918B10909138
:105220008C10982789279827AC0160E070E04093A4
:105230003D1050933E1060933F10709340100091CA
:105240008D1010E020E030E00093411010934210E8
:10525000209343103093441047E8E42E40E1F42EAD
:1052600040E050E0BA01B2E0EB0EF11C40175107EC
:1052700062077307D0F4DA01B595A795AA0FBB1F93
:10528000A65CBF4EF701D580ED2DF0E0BE2EAA241E
:10529000F701D680F501ED291C96FC93EE931B9740
:1052A0004E5F5F4F6F4F7F4FDECF8631F0E19F073C
:1052B00009F47BC0F8F4823030E1930709F4B5C0FB
:1052C00038F48115904111F40C947D310C94973190
:1052D0008830E0E19E0709F478C08231904111F0F6
:1052E0000C94973180914510909146100E948980CE
:1052F0000C949731843320E1920709F4F5C758F4F0
:105300008033A0E19A0709F4B5C78233904109F4CC
:10531000BAC70C9497318234E4E19E0709F44CC07B
:105320008035954111F00C949731209145103091C2
:1053300046108091A0169091A1162817390708F001
:10534000F6C780910302909104022817390709F4E7
:10535000EEC755E0880F991F5A95E1F76FEF7FEF81
:105360008D5F9F490E94568A80914510909146100A
:105370009093040280930302880F991FFC01E25965
:10538000F94E6081718182E595E10E947977809183
:1053900003029091040275E0880F991F7A95E1F756
:1053A00061E070EA8D5F9F499CC7809145109091A4
:1053B00046100E944048BBC780914510909146100E
:1053C0009093020280930102B2C780EA9FE00E949C
:1053D0000DB26093C6047093C7048093C804909381
:1053E000C9042CE330E040E050E00E9447B29F93B4
:1053F0008F937F936F935F934F933F932F938EE0A1
:1054000098E09F938F9384E190E19F938F930E9404
:10541000C0AB64E170E180E095E10E9485740FB655
:10542000F894DEBF0FBECDBF82C7E0914510F0916A
:105430004610E334F10508F07AC78827EE58FF4F8D
:105440008F4F0C94BDB6C0904D16D0904E16E09084
:105450004F16F090501620E030E04CE553E4C701C1
:10546000B6010E94EEAB87FF62C720E030E040E269
:1054700051E4C701B6010E9483B260934D16709348
:105480004E1680934F169093501620E030E04CE576
:1054900053E40E94A9B4181664F480E090E0ACE5EF
:1054A000B3E480934D1690934E16A0934F16B0938D
:1054B000501680E09DC020E030E040E251E41BC087
:1054C000C0904D16D0904E16E0904F16F0905016AA
:1054D00020E030E04CE553E4C701B6010E94EEAB9A
:1054E00087FF25C720E030E040E85FE3C2CF20E03F
:1054F00030E040E85FE360914D1670914E16809168
:105500004F16909150160E9482B260934D16709380
:105510004E1680934F169093501620915F052111DF
:1055200004C020915E05222321F220E030E0A90191
:105530000E94EEAB87FFBDCF10924D1610924E1613
:1055400010924F1610925016B4CFC0904D16D090B6
:105550004E16E0904F16F090501620E030E04CE5EB
:1055600053E4C701B6010E94EEAB87FFE0C62DEC05
:105570003CEC4CEC5DE37DCF2DEC3CEC4CEC5DE386
:10558000BACFC0905116D0905216E0905316F090BA
:10559000541620E030E04CE553E4C701B6010E9408
:1055A000EEAB87FFC4C620E030E040E251E4C70123
:1055B000B6010E9483B26093511670935216809385
:1055C00053169093541620E030E04CE553E40E94CB
:1055D000A9B4181664F480E090E0ACE5B3E48093DD
:1055E000511690935216A0935316B093541681E01F
:1055F0000E9488479CC620E030E040E251E41BC096
:10560000C0905116D0905216E0905316F090541658
:1056100020E030E04CE553E4C701B6010E94EEAB58
:1056200087FF85C620E030E040E85FE3C0CF20E0A0
:1056300030E040E85FE3609151167091521680911E
:105640005316909154160E9482B260935116709333
:105650005216809353169093541620915F05211192
:1056600004C020915E05222311F220E030E0A90160
:105670000E94EEAB87FFBBCF1092511610925216CC
:105680001092531610925416B2CFC0905116D0906B
:105690005216E0905316F090541620E030E04CE59E
:1056A00053E4C701B6010E94EEAB87FF40C62DEC64
:1056B0003CEC4CEC5DE37BCF2DEC3CEC4CEC5DE347
:1056C000BACFC0905516D0905616E0905716F0906D
:1056D000581620E030E04AE753E4C701B6010E94C3
:1056E000EEAB87FF24C620E030E040E251E4C70182
:1056F000B6010E9483B2609355167093561680933C
:1057000057169093581620E030E04AE753E40E9481
:10571000A9B4181664F480E090E0AAE7B3E480939B
:10572000551690935616A0935716B093581682E0CC
:105730005FCF20E030E040E251E41BC0C09055163E
:10574000D0905616E0905716F090581620E030E0B2
:105750004AE753E4C701B6010E94EEAB87FFE7C5F5
:1057600020E030E040E85FE3C2CF20E030E040E8F6
:105770005FE360915516709156168091571690917F
:1057800058160E9482B260935516709356168093F5
:1057900057169093581620915F05211104C020914F
:1057A0005D05222321F220E030E0A9010E94EEAB4A
:1057B00087FFBDCF109255161092561610925716AD
:1057C00010925816B4CFC0905516D0905616E0904F
:1057D0005716F090581620E030E04AE753E4C7012E
:1057E000B6010E94EEAB87FFA2C52DEC3CEC4CEC61
:1057F0005DE37DCF2DEC3CEC4CEC5DE3BACFC0908B
:105800003916D0903A16E0903B16F0903C16109165
:105810005C05111103C063EC70E002C061EE70E042
:10582000072E000C880B990B0E94F4AB9B01AC0176
:10583000C701B6010E94A9B487FD3CC020E030E05A
:1058400040E251E4A7C0C0903916D0903A16E090DB
:105850003B16F0903C1610915C05111103C063ECEF
:1058600070E002C061EE70E0072E000C880B990B0F
:105870000E94F4AB9B01AC01C701B6010E94A9B420
:1058800087FD18C020E030E040E251E460915916F5
:1058900070915A1680915B1690915C160E9482B2AC
:1058A0006093591670935A1680935B1690935C160A
:1058B00083E09ECE1092C5049FC0C0903916D09050
:1058C0003A16E0903B16F0903C1610915C051111D1
:1058D00003C063EC70E002C061EE70E0072E000CC4
:1058E000880B990B0E94F4AB9B01AC01C701B60178
:1058F0000E94A9B487FD29C020E030E040E85FE3C2
:1059000049C0C0903916D0903A16E0903B16F090FE
:105910003C1610915C05111103C063EC70E002C0ED
:1059200061EE70E0072E000C880B990B0E94F4AB1F
:105930009B01AC01C701B6010E94A9B487FD05C057
:1059400020E030E040E85FE3A1CF81E053C0C090A9
:105950003916D0903A16E0903B16F0903C16109114
:105960005C05111103C063EC70E002C061EE70E0F1
:10597000072E000C880B990B0E94F4AB9B01AC0125
:10598000C701B6010E94A9B487FD33C02DEC3CECE1
:105990004CEC5DE36091591670915A1680915B163C
:1059A00090915C160E9483B27BCFC0903916D09044
:1059B0003A16E0903B16F0903C1610915C051111E0
:1059C00003C063EC70E002C061EE70E0072E000CD3
:1059D000880B990B0E94F4AB9B01AC01C701B60187
:1059E0000E94A9B487FD05C02DEC3CEC4CEC5DE3B6
:1059F0004DCF82E08093C504111103C063EC70E0C9
:105A000002C061EE70E080E694E10E94568A8EE565
:105A100090E0CFC265E070E080E090E00E94897B7A
:105A20008EE099E09093AD048093AC040E94D04541
:105A300081E080935E057BC465E070E080E090E0EB
:105A40000E94897B87E099E09093AD048093AC0439
:105A50000E94D04581E080935D0569C48091C504B2
:105A6000811103C083E090E0A4C2082E000C990BC2
:105A700083969FC220915F16309160168091C40476
:105A8000082E000C990B2930310509F4E9C18C5915
:105A90009F4F8FC2809103029091040297FD47C4EB
:105AA00065E070E00E948EB6611103C08AE190E06B
:105AB00080C2CB019927815A9F4F7BC280910302FC
:105AC0009091040297FD33C4880F991FFC01E2599D
:105AD000F94E60E070E0808191810E94377740E06C
